:020000040800F2
:10000000000400204B280008BD0E0008BF0E0008A9
:10001000C30E0008C70E0008CB0E00080000000049
:10002000000000000000000000000000CF0E0008EB
:10003000D10E000800000000D30E0008D50E000805
:100040006B0300086B2800086B2800086B28000869
:100050006B2800086B2800086B2800086B28000834
:100060006B2800086B2800086B2800086B28000824
:100070006B2800086B2800086B2800086B28000814
:100080006B2800086B2800086B2800086B28000804
:100090006B2800086B2800086B2800086B280008F4
:1000A0006B2800086B2800086B2800086B280008E4
:1000B0006B2800086B2800086B2800086B280008D4
:1000C0006B2800086B2800086B2800086B280008C4
:1000D0006B280008C91600086B280008E116000804
:1000E0006B2800086B2800086B2800086B280008A4
:1000F0006B2800086B2800086B2800086B28000894
:100100006B2800086B2800086B2800086B28000883
:100110006B2800086B2800086B2800086B28000873
:100120006B2800086B2800086B2800086B28000863
:1001300000F002F800F090F80AA090E8000C824469
:100140008344AAF10107DA4501D100F085F8AFF246
:10015000090EBAE80F0013F0010F18BFFB1A43F0A5
:10016000010318470879000028790000103A24BFDD
:1001700078C878C1FAD8520724BF30C830C144BF0C
:1001800004680C607047000000230024002500264E
:10019000103A28BF78C1FBD8520728BF30C148BFEA
:1001A0000B6070476E2904F04D83702904F097842A
:1001B000662907F00C83652907F00983672907F092
:1001C0000683612907F0058303681B0A28BF41F0F5
:1001D0008001692904F0FA82642904F0F782752904
:1001E00004F0F4826F2904F02484782904F06384F5
:1001F000E92904F0BF83E42904F0BC83F52904F065
:10020000B983EF2904F02184F82904F0628403689B
:10021000DB0928BF41F08001632905F0698173295A
:1002200005F06E81E32905F07981F32905F07E81DF
:10023000002070471FB505F0CFF904000020002111
:1002400006F01CFB401C60600020002106F000FB53
:10025000E0601FBD10B510BD05F090F91146FFF725
:10026000E9FF00F058FA05F06DFA03B4FFF7F2FF6A
:1002700003BC05F0B1FA000010B501F057FA4FF4D5
:10028000803001F073FA01F0B0FAFE4908700846B8
:100290000078012826D1002001F0EDFA002001F0BD
:1002A000FCFA4FF4806001F0EFFA022002F032F81D
:1002B000102002F043F84FF4E0114FF4803001F0C9
:1002C000BDFA012001F0C6FA00BF392001F071FA31
:1002D0000028FAD0022001F0C0FA00BF01F0C6FAEF
:1002E0000828FBD110BD08B501213C2001F08CFB92
:1002F0004FF40070ADF8000018208DF803000320C3
:100300008DF802006946E04801F0C6FE4FF48060B7
:10031000ADF8000004208DF803006946DA4801F0CA
:10032000BBFE08BD08B54FF4E06001F0E7FD2520F5
:100330008DF8000000208DF80100684601F0E3FD13
:1003400008BD10B50121C80201F06BFB4FF4C0706D
:1003500001F09BFD412001F0A1FD502001F0B9FD0D
:1003600001F0C2FD01F0ABFD10BD10B5502001F051
:10037000AAFD01F0B9FD10BD10B504462146C348E1
:1003800001F0C7FC00BF4021C04801F019FD002862
:10039000F9D010BD10B500226B21D02000F00CFF69
:1003A00007221146D02000F007FF06221A21D02094
:1003B00000F002FF18221B21D02000F0FDFE0822D1
:1003C0001C21D02000F0F8FE06221D21D02000F0D4
:1003D000F3FE10BD0FB410B59AB000241DA8009014
:1003E000642101A8009B1C9A04F034F90DE001A8D7
:1003F000015DA74801F08DFC00BF4021A44801F039
:10040000DFFC0028F9D0601C84B2642C03DA01A858
:10041000005D0028EBD1002000901AB010BC5DF800
:1004200014FB70B505460E4600240CE0295D974884
:1004300001F06FFC00BF4021944801F0C1FC00288E
:10044000F9D0601C84B2B442F0DB70BD2DE9F84FE6
:1004500005460E4617469846DDE90AAB0024AA2257
:100460002146641C8B4842542146641C425402229B
:100470002146641C425400222146641C42540095CB
:100480009DF801202146641C42549DF8002021461D
:10049000641C425400969DF801202146641C42547D
:1004A0009DF800202046611CCCB27A490A5400977E
:1004B0009DF801202046611CCCB276490A549DF873
:1004C00000202046611CCCB272490A54CDF800804D
:1004D0009DF801202046611CCCB26E490A549DF85B
:1004E00000202046611CCCB26A490A54CDF800A015
:1004F0009DF801202046611CCCB266490A549DF843
:1005000000202046611CCCB262490A54CDF800B0EC
:100510009DF801202046611CCCB25E490A549DF82A
:1005200000202046611CCCB25A490A540C98009015
:100530009DF801202046611CCCB256490A549DF812
:1005400000202046611CCCB252490A540D980090FC
:100550009DF801202146601CC4B24E4842549DF8CB
:1005600000202046611CCCB24A490A540E980090E3
:100570009DF801202046611CCCB246490A549DF8E2
:1005800000202046611CCCB242490A54201FC8708A
:100590004FF00009002006E03E49095C494401F0A3
:1005A000FF09411CC8B2A042F6DB2046611CCCB258
:1005B000384901F8009021463648FFF732FFBDE880
:1005C000F88F77B587B000240020069000250590AD
:1005D000AA222146641C0DF801202146641C0DF856
:1005E000012001222146641C0DF80120062221462B
:1005F000641C0DF801202849079806F0B3FE064652
:1006000006F034FE80B206909DF819202146641C45
:100610000DF801209DF818202146641C0DF80120DA
:100620001D49089806F09EFE064606F01FFE80B2A1
:1006300006909DF819202146641C0DF801209DF8B4
:1006400018202146601CC4B20DF8012012490998F7
:1006500006F088FE064606F009FE80B206909DF878
:1006600019202046611CCCB20DF800209DF81820FE
:100670002046611CCCB20DF800209DF814202046C5
:10068000611C0BE00400002000080140003801401C
:1006900000480040B80000200000C842CCB20DF86D
:1006A00000209DF815202046611CCCB20DF80020DA
:1006B0009DF816202146601CC4B20DF801209DF85B
:1006C00017202046611CCCB20DF8002000222146E4
:1006D000601CC4B20DF8012001222046611CCCB27E
:1006E0000DF80020201FC0B28DF80300002005E0A7
:1006F0001DF800102944CDB2411CC8B2A042F7DB5E
:100700002046611CCCB20DF8005021466846FFF728
:1007100088FE0AB070BDFCB0FFF7AEFD4FF4E130CB
:1007200000F00EFF4FF4E13000F06CFF00F0FEFB34
:10073000FFF730FE03F014FDFE484FF07C510268D5
:10074000FD4803F051F94FF07C51FC4802F0A2F84B
:10075000FB4A0021F94802F0C1F800207A907B9012
:10076000789079907690779074907590729073905D
:100770007090719094E303F070FC7AA800F06BFD28
:1007800078A800F0B9FD76A800F02AFEBDF9E001D6
:10079000399006F087FD4C90BDF9E201399006F0E2
:1007A00081FD4D90BDF9E401399006F07BFD4E903E
:1007B000BDF9E801399006F075FD4990BDF9EA01EF
:1007C000399006F06FFD4A90BDF9EC01399006F0C2
:1007D00069FD4B90BDF9D801399006F063FD469054
:1007E000BDF9DA01399006F05DFD4790BDF9DC01F5
:1007F000399006F057FD48902422D24967A803F0AB
:1008000043FF002064906590669000BF43A8279046
:100810004CA807C828AB07C3242267A92BA803F05C
:1008200033FFC94A07CA34AB07C364A807C837AB4C
:1008300007C3279824222BA9149015A803F024FF9E
:1008400021A80D9024A8069028A807C807AB07C3C5
:1008500037A807C80AAB07C30A9802900798019007
:10086000029906F03FFF03900B98029008980190C0
:10087000029906F037FF04900C98029009980190B5
:10088000029906F02FFF059003A90EC906980EC025
:1008900000BF24A807C80EAB07C334A807C811AB14
:1008A00007C3119809900E980890099906F05AFD0F
:1008B0000A90129809900F980890099906F052FD35
:1008C0000B901398099010980890099906F04AFD2A
:1008D0000C900AA90EC90D980EC000BF21A807C828
:1008E0001EAB07C320980E9017980D900E9906F036
:1008F00039FD10901F980C9016980B900C9906F0EB
:1009000031FD0E901E980C9015980B900C9906F0E6
:1009100029FD0D900E9906F03FFB0F90109906F0FF
:100920003BFB119020980E901A980D900E9906F0AE
:1009300019FD10901F980C9019980B900C9906F0C7
:1009400011FD0E901E980C9018980B900C9906F0C3
:1009500009FD0D900E9906F01FFB0F90109906F0FF
:100960001BFB129020980E901D980D900E9906F08A
:10097000F9FC10901F980C901C980B900C9906F0A5
:10098000F1FC0E901E980C901B980B900C9906F0A1
:10099000E9FC0D900E9906F0FFFA0F90109906F001
:1009A000FBFA139011A90EC914980EC000BF00BF26
:1009B00000BF2422634924315BA803F065FE00BF19
:1009C00040A82A9046A807C82BAB07C324225BA9DE
:1009D0002EA803F059FE5D4A07CA37AB07C32A9811
:1009E000209027A824222EA9139014A803F04CFECF
:1009F0002BA807C81DAB07C31F980D9016980C9025
:100A00000D9906F0AFFC0F901E980B9015980A9068
:100A10000B9906F0A7FC0D901D980B9014980A9066
:100A20000B9906F09FFC0C900D9906F0B5FA0E900C
:100A30000F9906F0B1FA10901F980D9019980C902C
:100A40000D9906F08FFC0F901E980B9018980A9045
:100A50000B9906F087FC0D901D980B9017980A9043
:100A60000B9906F07FFC0C900D9906F095FA0E900C
:100A70000F9906F091FA11901F980D901C980C9008
:100A80000D9906F06FFC0F901E980B901B980A9022
:100A90000B9906F067FC0D901D980B901A980A9020
:100AA0000B9906F05FFC0C900D9906F075FA0E900C
:100AB0000F9906F071FA129010A90EC913980EC082
:100AC00000BF27A807C821AB07C3DDE93712399853
:100AD000CDE92412269024981C9021981B901C99F3
:100AE00006F000FE1D9025981C9022981B901C99E2
:100AF00006F0F8FD1E9026981C9023981B901C99D8
:100B000006F0F0FD1F901DA90EC920980EC000BF71
:100B100000BF24220B49483152A803F0B5FD002044
:100B20004F905090519000BF3DA8279049A807C80A
:100B300028AB0DE0080000206C0000208800002099
:100B400000809945B8780008140000202C0000208F
:100B500007C3242252A92BA803F096FDD14A07CA45
:100B600034AB07C34FA807C837AB07C32798242265
:100B70002BA9149015A803F087FD21A80D9024A897
:100B80000690DDE929022899CDE90802079137A8E6
:100B900007C80AAB07C30A98029007980190029908
:100BA00006F0A0FD03900B9802900898019002991E
:100BB00006F098FD04900C98029009980190029913
:100BC00006F090FD0590DDE90323DDE90510C0E99D
:100BD0000023816000BF24A807C80EAB07C334A858
:100BE00007C811AB07C3119809900E98089009998E
:100BF00006F0B8FB0A90129809900F98089009998E
:100C000006F0B0FB0B901398099010980890099982
:100C100006F0A8FB0C900AA90EC90D980EC000BFE3
:100C200021A807C81EAB07C320980E9017980D90F7
:100C30000E9906F097FB10901F980C9016980B9049
:100C40000C9906F08FFB0E901E980C9015980B9047
:100C50000C9906F087FB0D900E9906F09DF90F9008
:100C6000109906F099F9119020980E901A980D900D
:100C70000E9906F077FB10901F980C9019980B9026
:100C80000C9906F06FFB0E901E980C9018980B9024
:100C90000C9906F067FB0D900E9906F07DF90F9008
:100CA000109906F079F9129020980E901D980D90E9
:100CB0000E9906F057FB10901F980C901C980B9003
:100CC0000C9906F04FFB0E901E980C901B980B9001
:100CD0000C9906F047FB0D900E9906F05DF90F9008
:100CE000109906F059F9139011A90EC914980EC065
:100CF00000BF00BFBDF9DC01BDF9DA11BDF9D82193
:100D0000BDF9E431CDE90132CDE90310BDF9E201CD
:100D10000090BDF9E0013990BDF9EC013890BDF9C2
:100D2000EA013790BDF9E801369037A90EC9FFF7FF
:100D30008DFB459800905C4937A8449B439A02F08C
:100D400074FE37A807C843AB07C35848006806902D
:100D500040A807C803AB07C33DA807C88DE8070034
:100D6000534843A90EC901F0C8FD00BF3AA8504935
:100D7000319036A802F025FD36A80FC8CDE93423FE
:100D8000CDE9320132982B9001462A9006F0EAFA1A
:100D90004FF07C512C9006F0A5FC309035982890AF
:100DA0000146279006F0DEFA2990309906F0F4F813
:100DB0002B903398279032982690279906F0D2FAF4
:100DC00029903598279034982690279906F0CAFAEA
:100DD0002890299906F086FC2A902B9905F04EFA66
:100DE0002C9034492C9806F0BDFA2D90349826901A
:100DF00032982590269906F0B5FA289035982690D5
:100E000033982590269906F0ADFA2790289906F098
:100E1000C3F84FF08041299006F0A4FA2A9005F01B
:100E20009BF925492B9006F09DFA2C9021492C988E
:100E300006F098FA2E90339828900146279006F0F5
:100E400091FA2990309906F0A7F82B9035982790C1
:100E500032982690279906F085FA299034982790A1
:100E600033982690279906F07DFA2890299906F064
:100E700039FC2A902B9905F001FA2C900D492C98F9
:100E800006F070FA2F902DA90EC931980EC000BF40
:100E90003AA807C8FFF795FB012000F07DF900BFD5
:100EA00069E40000200000206C0000200800002001
:100EB00088000020E02E6542000080BF704700BF20
:100EC000FEE700BFFEE700BFFEE700BFFEE770479A
:100ED0007047704770470000002904DA4A4211B297
:100EE0002D22027001E020220270642291FBF2F2B6
:100EF0003032D3B2421C10461370642291FBF2F3DD
:100F000002FB13110A2291FBF2F23032D3B2421CDF
:100F1000104613700A2291FBF2F302FB131101F148
:100F20003002D3B2421C10461370704708B54FF41C
:100F30000050ADF8000003208DF8020014208DF859
:100F400003006946FE4801F0A7F84FF40040ADF8F1
:100F5000000003208DF8020014208DF8030069467C
:100F6000F74801F099F808BD052001E0411EC8B21C
:100F70000028FBD1704700B54FF40040F049103114
:100F8000086080100860FFF7EFFFED480830006848
:100F900008B9012000E0002000F4004008B1002062
:100FA00000BD4FF40040E64914310860FFF7DCFF54
:100FB000E3480830006800F4004008B10020EFE783
:100FC0004FF40040DE4914310860FFF7CDFF0120E7
:100FD000E6E700B54FF40050D94914310860FFF737
:100FE000C3FF4FF40040D64914310860FFF7BCFF3F
:100FF0004FF40050D24910310860FFF7B5FF4FF4AD
:101000000040CF4910310860FFF7AEFF00BD00B5CA
:101010004FF40050CA4914310860FFF7A5FF4FF4A0
:101020000040C74914310860FFF79EFF4FF400509D
:10103000C34910310860FFF797FF4FF40050C049D3
:1010400014310860FFF790FF00BD00B54FF4005069
:10105000BB4914310860FFF787FF4FF40040B849DF
:1010600010310860FFF780FF4FF40050B449103191
:101070000860FFF779FF4FF40050B1491431086060
:10108000FFF772FF00BD00B54FF40050AC491431BA
:101090000860FFF769FF4FF40040A949103108606C
:1010A000FFF762FF4FF40050A54910310860FFF7C9
:1010B0005BFFA3480830006800F4004040B14FF4E3
:1010C00000509F4914310860FFF74EFF002000BD1B
:1010D0004FF400509A4914310860FFF745FF012092
:1010E000F5E700B5024608231FE04FF4005094498D
:1010F00014310860FFF738FF02F0800028B14FF488
:1011000000408F491031086004E04FF400408C49E2
:10111000143108605006020EFFF726FF4FF400500E
:10112000874910310860FFF71FFF181EA3F1010166
:10113000CBB2DAD14FF4005081491431086000BDC0
:1011400000B50823002218037D491031086017E01C
:101150005006020E4FF40050794914310860FFF731
:1011600003FF4FF40050764910310860FFF7FCFE92
:1011700073480830006800F4004008B142F00102F2
:10118000181EA3F10101CBB2E2D14FF400506C491B
:1011900014310860104600BD01B509E0002000E0F0
:1011A000401C4CF250318842FAD30099491E0091FC
:1011B00000990029F2D108BD70B506460C461546C7
:1011C000FFF7D9FE08B9002070BD3046FFF789FF50
:1011D000FFF759FF18B9FFF7FCFE0020F4E720469F
:1011E000FFF77FFFFFF74FFF2846FFF77AFFFFF774
:1011F0004AFFFFF7EEFE0120FFF7CEFF0120E3E7F5
:1012000070B504460D46FFF7B6FE08B9002070BD64
:101210002046FFF766FFFFF736FF30B9FFF7D9FE2C
:101220000120484908700020F1E72846FFF759FFE0
:10123000FFF729FFFFF79FFE611CC8B2FFF751FFC0
:10124000FFF721FFFFF77CFF0646FFF7FEFEFFF7E3
:10125000C0FE3046DBE710B504463C21D020FFF746
:10126000CFFF394908703B21D020FFF7C9FF36492D
:10127000487008460078497840EA012000B2208092
:10128000B4F90000A42190FBF1F000B220803E21CF
:10129000D020FFF7B5FF2C4988703D21D020FFF703
:1012A000AFFF2949C87008468078C97840EA012014
:1012B00000B26080B4F90200A42190FBF1F000B20A
:1012C00060804021D020FFF79BFF1F4908713F211C
:1012D000D020FFF795FF1C494871084600794979ED
:1012E00040EA012000B2A080B4F90400A42190FBE0
:1012F000F1F000B2A08010BD2DE9F0410446442178
:10130000D020FFF77DFF104908704321D020FFF760
:1013100077FF0D49487008460078497840EA012077
:1013200000B22080B4F9000005F083FC07464FF0BE
:101330006632064B05F0F6FA054605F04BFC07E071
:10134000000C014010000020EA00002066663040DA
:1013500000B220804621D020FFF752FF72498870EA
:101360004521D020FFF74CFF6F49C87008468078B0
:10137000C97840EA012000B26080B4F9020005F0AB
:1013800058FC07464FF06632684B05F0CBFA05462D
:1013900005F020FC00B260804821D020FFF730FF2C
:1013A000614908714721D020FFF72AFF5E49487143
:1013B00008460079497940EA012000B2A080B4F9DA
:1013C000040005F036FC07464FF06632574B05F037
:1013D000A9FA054605F0FEFB00B2A080BDE8F08149
:1013E00010B5044602223721D020FFF7E5FE052084
:1013F000FFF7D2FE01220A211820FFF7DDFE0520AB
:10140000FFF7CAFE03211820FFF7FAFE46490870CD
:1014100004211820FFF7F4FE43494870084600787D
:10142000497840EA012000B2208005211820FFF70A
:10143000E7FE3D49887006211820FFF7E1FE3A4992
:10144000C87008468078C97840EA012000B2608000
:1014500007211820FFF7D4FE33490871082118200E
:10146000FFF7CEFE3049487108460079497940EAD5
:10147000012000B2A08010BD0FB52D480088A0B992
:101480000020ADF80000ADF80200ADF804002949D5
:10149000086029490860294908600120244908801A
:1014A00000230020108050809080BDF90000214969
:1014B000096808441F490860BDF902001E4909680F
:1014C00008441D490860BDF90400C01A1B49096899
:1014D00008441A49086016480088C8281DD11548D4
:1014E00000681349098890FBF1F000B2108012489F
:1014F00000680F49098890FBF1F000B250800F4856
:1015000000680B49098890FBF1F000B29080002040
:1015100007490880012004B000BD05480088401C30
:10152000034908800020F6E7EA00002066663040A4
:1015300044000020380000203C0000204000002033
:1015400010B586B00446B4F5E13F02D9002006B0DC
:1015500010BD0121042000F057FA0121880300F09A
:1015600053FA4FF40070ADF8040018208DF807000E
:1015700003208DF8060001A9684800F08DFD4FF4A6
:101580008060ADF8040004208DF8070003208DF87A
:10159000060001A9614800F07FFD02940020ADF82B
:1015A0000C00ADF80E00ADF81000ADF814000C20E2
:1015B000ADF8120002A95A4800F0CDFA012240F21B
:1015C0002551574800F044FB002240F2277154484F
:1015D00000F03EFB4021524800F0FFFB25208DF833
:1015E000000000208DF8010001208DF802008DF828
:1015F0000300684600F087FC0121494800F01CFB0D
:101600000120A4E710B586B00446B4F5E13F02D945
:10161000002006B010BD0121082000F0F5F90121DD
:10162000880400F0FEF94FF48060ADF80400182043
:101630008DF8070003208DF8060001A9394800F055
:101640002BFD4FF40060ADF8040004208DF8070076
:1016500003208DF8060001A9324800F01DFD029418
:101660000020ADF80C00ADF80E00ADF81000ADF89C
:1016700014000C20ADF8120002A92B4800F06BFA00
:10168000012240F22551284800F0E2FA002240F2FF
:101690002771254800F0DCFA4021234800F09DFB2B
:1016A00027208DF8000000208DF801008DF8020041
:1016B00001208DF80300684600F025FC01211A483E
:1016C00000F0BAFA0120A4E710B540F22551144801
:1016D00000F08CFB18B1124800F01FFBC4B210BD23
:1016E00010B540F22551104800F080FB30B10E4893
:1016F00000F013FBC4B2204602F07CFC10BD10B514
:1017000004462146084800F004FB00BF402106487B
:1017100000F056FB0028F9D010BD00000008014081
:1017200000380140000C014000480040DF480068DC
:1017300040F00100DD49086008464068DC49084087
:10174000DA49486008460068DA490840D749086025
:101750000846006820F4802008600846406820F4AD
:10176000FE0048604FF41F0088607047CF49096849
:1017700021F48031CD4A11601146096821F480219D
:101780001160B0F5803F03D0B0F5802F0ED106E098
:10179000C649096841F48031C44A116007E0C34971
:1017A000096841F4A021C14A116000E000BF00BFF8
:1017B000704710B501460022002300204A11012A7B
:1017C00002D1BA4C236806E0022A02D1B74C236A40
:1017D00001E0B64C636A01F01F02012494401C40F2
:1017E0000CB1012000E0002010BD38B500200090B1
:1017F0000024002500BF3120FFF7DBFF05460098DD
:10180000401C00900098B0F5A06F01D0002DF2D0E0
:101810003120FFF7CEFF08B1012400E0002420466C
:1018200038BD01460020A14A106820F0F80040EAC7
:10183000C10010607047A049086070470246002050
:101840009A4B586820F47C1042EA01031843974BE6
:101850005860704798490866704701460020934ACF
:10186000506820F003000843506070478F4840687C
:1018700000F00C007047014600208C4A506820F0B0
:10188000F00008435060704701460020874A5068C6
:1018900020F4E06008435060704701460020834A0E
:1018A000506820F4605040EAC1005060704729B190
:1018B0007E4A527A02437D4B5A7204E07B4A527A46
:1018C00082437A4B5A7270477B49D831086070471F
:1018D00001460020754A506820F44040084350609B
:1018E00070470021714A20321170704A82F820102E
:1018F000012802D004280AD104E001216B4A2032D9
:10190000117005E00521694A2032117000E000BF26
:1019100000BF70476949086070476449096A01431C
:10192000624A11627047654944390860704730B5B2
:1019300000210022002400235C4D6D6805F00C019D
:1019400021B1042905D0082923D105E05C4D0560AB
:1019500022E05B4D05601FE0544D6D6805F4701288
:10196000524D6D6805F48034022505EB92421CB996
:10197000544D554305600BE04C4D6D6805F4003542
:101980001DB1504D5543056002E04D4D5543056076
:1019900002E04B4D056000BF00BF444D6D6805F08F
:1019A000F0010909484D6B5C0568DD4045603F4D1D
:1019B0006D6805F4E061090A434D6B5C4568DD40E4
:1019C00085603A4D6D6805F46051C90A3E4D6B5C07
:1019D0004568DD40C560354D6D6805F44041890BB3
:1019E0003A4D6B5CC568B5FBF3F5056130BD29B1B7
:1019F0002E4A526902432D4B5A6104E02B4A526928
:101A000082432A4B5A61704729B1284A926902439E
:101A1000264B9A6104E0254A92698243234B9A61DE
:101A2000704729B1214AD2690243204BDA6104E0B0
:101A30001E4AD26982431D4BDA61704729B11B4AA5
:101A4000D2680243194BDA6004E0184AD268824334
:101A5000164BDA60704729B1144A12690243134BDE
:101A60001A6104E0114A12698243104B1A617047EF
:101A700012494039086070470F49C86470470B49E4
:101A8000C87170470948406A40F080700749486251
:101A9000704701460020054A92680A400AB10120B9
:101AA00000E0002070470149887270470010024032
:101AB0000000FFF8FFFFF6FE0000424280044242B1
:101AC00000127A0000093D00460000205600002068
:101AD00010B50446E248844209D101218803FFF78A
:101AE000ADFF00214FF48040FFF7A8FF32E0DD4852
:101AF000844209D101214804FFF7ADFF00214FF4D2
:101B00000030FFF7A8FF25E0D748844209D1012122
:101B10008804FFF7A0FF00214FF48020FFF79BFF10
:101B200018E0D248844209D10121C804FFF793FF8D
:101B300000214FF40020FFF78EFF0BE0CC488442D9
:101B400008D101210805FFF786FF00214FF480101E
:101B5000FFF781FF10BD2DE9F04786B005460E4620
:101B60000024A24600BF00BF0027B08900B100BF1B
:101B70002F462C8A4CF6FF700440F08804432C82D8
:101B8000AC894EF6F3100440B0883189084371895E
:101B900008430443AC81AC8A4FF6FF400440B0894F
:101BA0000443AC8201A8FFF7C2FEAD48874202D1D0
:101BB000DDF810A001E0DDF80CA00AEBCA0000EB94
:101BC0000A1031688900B0FBF1F86420B8FBF0F02E
:101BD00004012009642101FB1089322000EB091067
:101BE000B0FBF1F000F00F0004432C8106B0BDE81B
:101BF000F0874FF41651016000218180C18001817E
:101C00000C21418100218181704710B502460020DE
:101C1000108A4FF2FF0318400B884C8823438C88AE
:101C20002343CC8823431843108210BD0021018038
:101C300041808180C180704721B1828942F4005285
:101C4000828104E082894DF6FF731A4082817047D9
:101C5000F0B50346002400260025002040F66A1750
:101C6000B94200D100BF1846C1F3421401F01F066B
:101C7000012707FA06F5012C01D10C3004E0022CF3
:101C800001D1103000E014301AB107682F4307600B
:101C900002E00768AF430760F0BD1AB1838A0B43C7
:101CA000838202E0838A8B4383827047028A4FF6E5
:101CB000F0731A400282028A0A43028270478289C4
:101CC0004FF2FF731A40828182890A4382817047F2
:101CD00021B1828942F00202828104E082894FF6BA
:101CE000FD731A4082817047028A4FF6DF731A40F3
:101CF0000282028A0A430282704721B1028A42F4B8
:101D00008042028204E0028A4BF6FF731A4002828C
:101D10007047C1F308028280704701468888C0F38B
:101D200008007047818941F0010181817047028B71
:101D3000D2B20283028B42EA012202837047028BF5
:101D400002F47F420283028B0A430283704721B16F
:101D5000828A42F02002828204E0828A4FF6DF7398
:101D60001A408282704721B1828A42F01002828238
:101D700004E0828A4FF6EF731A408282704721B1E5
:101D8000828A42F00802828204E0828A4FF6F77368
:101D90001A4082827047828A4FF6FB731A40828211
:101DA000828A0A438282704721B1828A42F002020B
:101DB000828204E0828A4FF6FD731A408282704765
:101DC00002460020B1F5007F00D100BF13880B4010
:101DD0000BB1012000E00020704701F40072B2F561
:101DE000007F00D100BFCA430280704770B5024631
:101DF000002400230025002040F66A16B14200D1DD
:101E000000BFC1F3421501F01F03012606FA03F3D8
:101E1000012D02D19689334006E0022D02D1168AA7
:101E2000334001E0968A33400C12012606FA04F48E
:101E30001688344013B10CB1012000E0002070BDC1
:101E400010B50022002340F66A14A14200D100BF61
:101E50000A1201249440A3B2DC43048010BD0000A8
:101E6000003801400044004000480040004C004061
:101E70000050004010B50121C802FFF7ECFD002121
:101E80004FF40060FFF7E7FD10BD0021194A12680A
:101E900022F4C0710143174A1160704708B5002150
:101EA00000911449096821F07F01009100F07F0141
:101EB000009A114300910F4A0099116008BD01205A
:101EC0000D490860704700F07F010A4A121F116037
:101ED000704740F08001074A121F116070470548A3
:101EE000001D0068C0B2704700200249091D08604B
:101EF00070470000042C0040A48005423149014392
:101F0000314A1160704770B5002100230F22C47858
:101F100004B32D4C246804F4E064C4F5E064210AA1
:101F2000C1F10403CA40447804FA03F184781440F0
:101F300021430901254C0678A155047804F01F05BA
:101F40000124AC4005786D11AD0005F1E025C5F820
:101F5000004109E0047804F01F050124AC401C4D49
:101F60000678761145F8264070BD1A4A0A400243A9
:101F7000154B1B1F1A60704739B1134A121D1268A6
:101F80000243114B1B1D1A6006E00F4A121D126816
:101F900082430D4B1B1D1A607047042808D14FF077
:101FA000E021096941F004014FF0E022116107E0EE
:101FB0004FF0E021096921F004014FF0E0221161A6
:101FC000704700000000FA050CED00E000E400E0BE
:101FD00080E100E080FFFF1F10B50446C448844242
:101FE00008D101210420FFF729FD00210420FFF77B
:101FF00025FD46E0BF48844208D101210820FFF7B3
:102000001DFD00210820FFF719FD3AE0BA4884427F
:1020100008D101211020FFF711FD00211020FFF74A
:102020000DFD2EE0B548844208D101212020FFF7A4
:1020300005FD00212020FFF701FD22E0B048844289
:1020400008D101214020FFF7F9FC00214020FFF7D3
:10205000F5FC16E0AB48844208D101218020FFF74F
:10206000EDFC00218020FFF7E9FC0AE0A64884424D
:1020700007D101218015FFF7E1FC0021A015FFF732
:10208000DDFC10BD10B501210846FFF7D7FC00218B
:102090000120FFF7D3FC10BD2DE9F04102460025D9
:1020A0000026002000230024002791F803C00CF034
:1020B0000F0591F803C00CF0100CBCF1000F03D019
:1020C00091F802C04CEA050591F800C0BCF1000F80
:1020D00031D0146800202BE04FF0010C0CFA00F313
:1020E000B1F800C00CEA03069E4220D183004FF0F5
:1020F0000F0C0CFA03F7BC4305FA03FC4CEA04048A
:1021000091F803C0BCF1280F06D14FF0010C0CFA76
:1021100000FCC2F814C00AE091F803C0BCF1480FFB
:1021200005D14FF0010C0CFA00FCC2F810C0401CA5
:102130000828D1D31460B1F800C0BCF1FF0F34DD22
:10214000546800202EE000F1080C4FF0010808FA56
:102150000CF3B1F800C00CEA03069E4221D18300C3
:102160004FF00F0C0CFA03F7BC4305FA03FC4CEAE2
:10217000040491F803C0BCF1280F05D100F1080C4C
:1021800008FA0CF8C2F8148091F803C0BCF1480FAB
:1021900007D100F1080C4FF0010808FA0CF8C2F85A
:1021A0001080401C0828CED35460BDE8F0814FF663
:1021B000FF710180022181700421C17070470246C5
:1021C000002093680B400BB1012000E00020704715
:1021D0000146886880B2704702460020D3680B40F1
:1021E0000BB1012000E0002070470146C86880B2B2
:1021F000704701617047416170470AB1016100E0B9
:1022000041617047C16070474FF480320A43826178
:1022100081618261826982697047024600203B4B7E
:1022200018684FF68073184040EA02100843374B95
:10223000186070473649C8617047F0B50A460023F8
:10224000002400210025314E7168C0F3034583B29C
:1022500000F44016B6F5401F08D121F070612B4EF6
:10226000766826F07066294F7E6012E000F48016D2
:10227000B6F5801F06D1032606FA05F4A14341F006
:10228000706106E0460D360103FA06F6B14341F0EF
:10229000706122B1460D360103FA06F631431B4E3A
:1022A0007160F0BD30B500228B071C0F0F2303FABD
:1022B00004F2164B08338C1053F824309343134C1C
:1022C00008348D1044F8253023468C1053F8243000
:1022D0008C07240F00FA04F423430C4C08348D10AF
:1022E00044F8253030BD0A49DC31086070470000F1
:1022F00000080140000C01400010014000140140A2
:1023000000180140001C0140002001400000014075
:102310000000204201460020FD4A106800F038000D
:10232000084310607047FA49096821F00801F84A2B
:10233000116011460968014311607047F44909684A
:1023400021F01001F24A1160114609680143116041
:102350007047F048EE494860EF4848607047EC48E5
:10236000006940F08000EA49086170470420E849AC
:10237000C96801F0010109B101200EE0E449C96812
:1023800001F0040109B1022007E0E149C96801F048
:10239000100109B1032000E00420704708B50020B7
:1023A0000090FF20009002E00098401E00900098EE
:1023B0000028F9D108BD70B504460425FFF7D6FF03
:1023C000054605E0FFF7EAFFFFF7D0FF0546641E6C
:1023D000012D01D1002CF5D104B90525284670BD89
:1023E00070B50546042440F6FF70FFF7E4FF04468D
:1023F000042C19D1C648006940F00200C4490861A4
:1024000008464561006940F04000086140F6FF70F1
:10241000FFF7D1FF0446052C06D0BD48006941F600
:10242000FD710840BA490861204670BD10B504240A
:1024300040F6FF70FFF7BFFF0446042C18D1B448E4
:10244000006940F00400B24908610846006940F0A4
:102450004000086140F6FF70FFF7ADFF0446052C11
:1024600006D0AB48006941F6FB710840A8490861F5
:10247000204610BD10B5042440F6FF70FFF79BFF07
:102480000446042C3BD1A348A1498860A248886037
:102490000846006940F0200008610846006940F0E5
:1024A0004000086140F6FF70FFF785FF0446042CEA
:1024B0001CD19748006941F6DF71084094490861D2
:1024C0000846006940F010000861A5209349088083
:1024D0000F20FFF770FF0446052C10D08C480069D0
:1024E00041F6EF7108408A49086108E0052C06D0E2
:1024F0008748006941F6EF71084085490861204628
:1025000010BDF8B506460D460424002000900F20AB
:10251000FFF751FF0446042C28D17D48006940F0A4
:1025200001007B49086135800F20FFF744FF044616
:10253000042C12D1B01C0090280C009908800F20A8
:10254000FFF739FF0446052C10D07148006941F6A9
:10255000FE7108406E49086108E0052C06D06C4801
:10256000006941F6FE710840694908612046F8BDDE
:1025700070B505460E4604240F20FFF71CFF0446E5
:10258000042C13D16248006940F0010060490861E1
:102590002E800F20FFF70FFF0446052C06D05C4865
:1025A000006941F6FE71084059490861204670BD36
:1025B00070B505460E4604240F20FFF7FCFE0446C6
:1025C000042C17D153485249886053488860084604
:1025D000006940F0100008612E800F20FFF7EBFE2D
:1025E0000446052C06D04A48006941F6EF710840C0
:1025F00047490861204670BD2DE9F04704464FF673
:10260000FF763746B046B1460425E443E6B2C4F34C
:102610000727C4F307484FEA14690F20FFF7CBFEE2
:102620000546042D40D13B48394988603A488860C6
:102630000846006940F010000861FF2E06D03748B8
:10264000083006800F20FFF7B6FE0546042D08D19E
:10265000FF2F06D031480A3007800F20FFF7ABFE6E
:102660000546042D0AD1B8F1FF0F07D02B480C30D6
:10267000A0F800800F20FFF79EFE0546042D0AD12A
:10268000B9F1FF0F07D025480E30A0F800900F20B9
:10269000FFF791FE0546052D06D01D48006941F65D
:1026A000EF7108401A4908612846BDE8F08770B507
:1026B0000546042440F6FF70FFF77DFE0446042C17
:1026C00049D1144812498860134888600846006957
:1026D00040F0200008610846006940F040000861B1
:1026E00040F6FF70FFF767FE0446042C2AD1084825
:1026F000006941F6DF710840054908610846006934
:1027000040F0100008615DB10020044908800AE033
:102710000020024023016745AB89EFCD00F8FF1F81
:10272000A5204549088040F6FF70FFF744FE0446A7
:10273000052C10D04148006941F6EF7108403F492F
:10274000086108E0052C06D03C48006941F6DF71BD
:1027500008403A490861204670BD2DE9F041054620
:102760000E46174604243648344988603548886048
:102770000F20FFF720FE0446042C19D12F480069D2
:1027800040F010002D49086147F0F800304328431D
:102790002949891C08800F20FFF70DFE0446052CEF
:1027A00006D02648006941F6EF71084023490861C8
:1027B0002046BDE8F0812148C069800870471F4865
:1027C000006A704700201D49C96901F0020109B182
:1027D000012000E00020704700201849096801F03E
:1027E000200109B1012000E00020704729B1134AFF
:1027F00012690243114B1A6104E0104A12698243C4
:102800000E4B1A61704701460020012908D10B4A7E
:10281000D26902F001020AB1012008E0002006E0BE
:10282000064AD2680A400AB1012000E00020704741
:102830000249C8607047000000F8FF1F00200240F6
:1028400023016745AB89EFCD70470B4880470B49A3
:1028500081F308880A480047FEE7FEE7FEE7FEE747
:10286000FEE7FEE7FEE7FEE7FEE7FEE7054806496E
:10287000064A074B704700004928000860080020FE
:102880003101000860020020600800206004002080
:102890006004002030B587B0016000224260FE4A2B
:1028A0008260FE4D3CCDCDE90545CDE9032303AA69
:1028B0003CCA0C303CC01C380022009201920292AB
:1028C0009DE81C00C0E90834C261F54A826200221A
:1028D00080F82C2007B030BD0160704770B5044609
:1028E0000E4615463146304604F03CFD60602946F0
:1028F000284604F037FDA06070BD1FB5C0B00020B1
:102900003D903E903F903DA807C83AAC07C400BF39
:10291000469800212B9004F075FC0CD147980021BB
:102920002B9004F06FFC06D1489800212B9004F006
:1029300069FC00D1CCE24098406929904098C06879
:102940002890299904F00EFD2B90409880692990D9
:10295000409800692890299904F004FD2A902B9949
:1029600004F0C0FE309040988069299040984069FA
:102970002890299904F0F6FC2B9040980069299042
:102980004098C0682890299904F0ECFC2A902B9973
:1029900004F002FB3190409880692990409880694A
:1029A0002890299904F0DEFC2B904098C06828906C
:1029B0004098C0682790289904F0D4FC4FF07C51CF
:1029C000299004F08FFE2A902B9904F0E5FA3290BA
:1029D00026A81F9029A81B90479A46994898CDE9A8
:1029E0001C121E90DDE91C121E98CDE916121890DB
:1029F000189813900146129004F0B4FC15901798A3
:102A000011900146109004F0ADFC139016981190AF
:102A10000146109004F0A6FC1290139904F0BCFA41
:102A20001490159904F0B8FA19904FF07C51199848
:102A300004F098FC189019981790179816909949D7
:102A40001698A1EB6000169016981790DDE9171004
:102A500004F088FC1390179904F084FC4FF07F5128
:102A6000149004F0ADFD1590179904F07BFC1790BD
:102A700017981A901B981590DDE91C121E98CDE945
:102A8000161218901A98199016981190199904F026
:102A900069FC129017981190199904F063FC139037
:102AA00018981190199904F05DFC149012A90EC9A0
:102AB00015980EC000BF00BF29A807C820AB07C3E8
:102AC00030A807C823AB07C3249819902298189000
:102AD000199904F047FC1B9025981990219818909B
:102AE000199904F03FFC1A901B9904F0FBFD1C900F
:102AF0002598199020981890199904F033FC1B9090
:102B00002398199022981890199904F02BFC1A9088
:102B10001B9904F0E7FD1D902398199021981890B7
:102B2000199904F01FFC1B90249819902098189074
:102B3000199904F017FC1A901B9904F0D3FD1E900C
:102B40001CA90EC91F980EC000BF26A807C83AAB23
:102B500007C34B9A49994A98CDE92A0229912B98A3
:102B600026900146259004F0FDFB28902A98249099
:102B70000146239004F0F6FB269029982490014604
:102B8000239004F0EFFB2590269904F005FA279096
:102B9000289904F001FA2F904098406801462B9044
:102BA0002F9804F0ABFB07D34098806801462B9028
:102BB0002F9804F0A3FC00D28AE140988069299004
:102BC0004098C0682890299904F0CCFB2B9040983D
:102BD00040692990409800692890299904F0C2FB27
:102BE0002A902B9904F0D8F92C90409840692990AC
:102BF000409840692890299904F0B4FB2B904098A4
:102C0000C06828904098C0682790289904F0AAFBD3
:102C10004FF07C51299004F065FD2A902B9904F027
:102C2000BBF92D904098006929904098C068289081
:102C3000299904F097FB2B9040988069299040983F
:102C400040692890299904F08DFB2A902B9904F073
:102C500049FD2E9020A819903AA807C81AAB07C3BF
:102C600023A8129026A80E9029A8079046A807C866
:102C700008AB07C349A807C80BAB07C30C98019062
:102C80000A980090019904F06DFB03900D98019053
:102C900009980090019907E0FFFF7F7F24790008E1
:102CA00000002041DF59375F04F05CFB029003997C
:102CB00004F018FD04900D98019008980090019977
:102CC00004F050FB03900B9801900A980090019932
:102CD00004F048FB0290039904F004FD05900B9862
:102CE000019009980090019904F03CFB03900C9826
:102CF000019008980090019904F034FB0290039928
:102D000004F0F0FC0690DDE90423DDE90610C0E9DB
:102D10000023816000BF29A807C80FAB07C30FA815
:102D200007C809AB07C30B9806900146059004F04D
:102D300019FB08900A9804900146039004F012FBD6
:102D40000690099804900146039004F00BFB05904F
:102D5000069904F021F90790089904F01DF90C90E8
:102D60004FF07C510C9804F0FDFA0B900C980A90EF
:102D70000A980990FE490998A1EB6000099009980A
:102D80000A90DDE90A1004F0EDFA06900A9904F0C1
:102D9000E9FA4FF07F51079004F012FC08900A996D
:102DA00004F0E0FA0A900A980D900E980890DDE978
:102DB00010210F98CDE90A2109900D980C900998DF
:102DC00004900C9904F0CEFA05900A9804900C999E
:102DD00004F0C8FA06900B9804900C9904F0C2FA1B
:102DE000079005A90EC908980EC000BF00BF26A80D
:102DF00007C813AB07C3DDE92C122E98CDE91612D4
:102E0000189017980C9015980B900C9904F0AAFA4A
:102E10000E9018980C9014980B900C9904F0A2FA4C
:102E20000D900E9904F05EFC0F9018980C9013987A
:102E30000B900C9904F096FA0E9016980C90159839
:102E40000B900C9904F08EFA0D900E9904F04AFC48
:102E5000109016980C9014980B900C9904F082FA2C
:102E60000E9017980C9013980B900C9904F07AFA26
:102E70000D900E9904F036FC11900FA90EC912980E
:102E80000EC000BF23A807C81DAB07C31D9815902F
:102E90001A981490159904F07FF816901E981590C2
:102EA0001B981490159904F077F817901F981590B7
:102EB0001C981490159904F06FF8189016A90EC973
:102EC00019980EC000BF20A807C83AAB07C300BFBF
:102ED00000BF409800680021329004F093F902D1BD
:102EE00000214098816240980068399040980068BD
:102EF00032904098806A3190329904F0FFFA1BD2E8
:102F00004098006801462F909A4804F0EBFB3090FF
:102F10004C9904F027FA9849319004F0B1F83290B6
:102F20004098806A01463190329804F049FB4099FC
:102F300088624098806A399000BF36A82E9041A8D8
:102F400007C82FAB07C34FF07E502C908B492C98AD
:102F500004F008FA4FF07C512D9004F003FA3290FF
:102F60002F982A90329904F0FDF92B9030982A90EE
:102F7000329904F0F7F92C9031982A90329904F0A4
:102F8000F1F92D902BA90EC92E980EC000BF2DA8C7
:102F90002690DDE936123898CDE92712299030A81D
:102FA00021903AA807C822AB07C3399825902298E8
:102FB0001D90259904F0D6F91E9023981D9025990F
:102FC00004F0D0F91F9024981D90259904F0CAF9B7
:102FD00020901EA90EC921980EC000BF30A807C8B6
:102FE0002AAB07C32A98229027982190229903F0B0
:102FF000D3FF23902B98229028982190229903F0B8
:10300000CBFF24902C98229029982190229903F0AC
:10301000C3FF259023A90EC926980EC000BF2DA876
:1030200007C836AB07C328A81F904098D0E90423EF
:10303000C168806920AC0EC423902CA817904098DA
:10304000D0E90413C2688069CDE9191318921B9066
:1030500030A81290DDE936123898CDE91312159098
:103060004C98169013980E90169904F07BF90F90D7
:1030700014980E90169904F075F9109015980E900A
:10308000169904F06FF911900FA90EC912980EC08D
:1030900000BF30A807C81CAB07C31E9810901B9830
:1030A0000F90109904F05EF912901D980E901A98E6
:1030B0000D900E9904F056F91090199880F0004088
:1030C0000E901C9801460D900E9804F04BF90F904D
:1030D000109904F007FB1190129904F003FB139070
:1030E0001D9810901B980F90109904F03BF91290C6
:1030F0001E980E901A980D900E9904F033F91090C6
:103100001C980E9018980D900E9904F02BF90F90C2
:10311000109903F041FF1190129904F0E3FA149012
:103120001C9810901B980F90109904F01BF91290A6
:103130001E980E9019980D900E9904F013F91090A6
:103140001D980E9018980D900E9904F00BF90F90A1
:10315000109904F0C7FA1190129903F01DFF159011
:103160001C9810901A980F90109904F0FBF807E043
:10317000DF59375F000020410000404035FA8E3CA7
:1031800012901D980E9019980D900E9904F0EAF87F
:1031900010901E980E9018980D900E9904F0E2F879
:1031A0000F90109903F0F8FE1190129904F09AFA1A
:1031B000169013A91EC917981EC000BF2DA80BC8D2
:1031C0002C9A25AC0BC4249224981A90209819901C
:1031D0001A9903F0E1FE1B9025981A9021981990F6
:1031E0001A9903F0D9FE1C9026981A9022981990EB
:1031F0001A9903F0D1FE1D9027981A9023981990E0
:103200001A9903F0C9FE1E901BA91EC91F981EC063
:1032100000BF28A91EC940980C301EC02FA82A90B4
:103220004098D0E90423C16880692BAC0EC42E906D
:103230002E9821900146209004F094F823902D9828
:103240001F9001461E9004F08DF821902C981D903F
:1032500001461C9004F086F81F902B981D900146A3
:103260001C9004F07FF81E901F9903F095FE2090AB
:10327000219903F091FE2290239903F08DFE249072
:103280004FF07C51249804F06DF8239024982290FC
:1032900022982190FE492198A1EB6000219021986D
:1032A0002290DDE9221004F05DF81E90229904F0CE
:1032B00059F84FF07F511F9004F082F92090229925
:1032C00004F050F82290229829902B982490299964
:1032D00004F048F825902C982490299904F042F89D
:1032E00026902D982490299904F03CF827902E9848
:1032F0002490299904F036F8289025A91EC92A9807
:103300001EC000BF2FA91EC940980C301EC0409897
:1033100040692F904098C0682E902F9904F022F8B1
:103320003190409880692F90409800692E902F9995
:1033300004F018F83090319904F0D4F94FF080413E
:10334000329004F00FF83390409880692F904098A5
:1033500040692E902F9904F005F83190409800694B
:103360002F904098C0682E902F9903F0FBFF30906B
:10337000319903F011FE4FF08041329003F0F2FFDB
:103380003490409880692F90409880692E902F99B2
:1033900003F0E8FF31904098C0682E904098C068D4
:1033A0002D902E9903F0DEFF4FF07C512F9004F00A
:1033B00099F93090319903F0EFFD4FF08041329050
:1033C00003F0D0FF359030A82990479A4699489845
:1033D000CDE92A122C90DDE933203599CDE92D2055
:1033E0002F912D9825902A982490259904F07AF908
:1033F00026902E9825902B982490259904F072F908
:1034000027902F9825902C982490259904F06AF9FC
:10341000289026A90EC929980EC000BF30A90EC950
:1034200040981C300EC044B010BD13B5A0B016A813
:1034300011902098D0E90423C168806912AC0EC4B1
:103440001590159807900146069003F08BFF0990A0
:10345000149805900146049003F084FF0790139898
:1034600003900146029003F07DFF059012980390AF
:103470000146029003F076FF0490059903F08CFD5D
:103480000690079903F088FD0890099903F084FDE0
:103490000A9003F0C7F901460B904FF07E5003F0FD
:1034A000EFFD109012980B90109903F05BFF0C90B9
:1034B00013980B90109903F055FF0D9014980B90F2
:1034C000109903F04FFF0E9015980B90109903F090
:1034D00049FF0F900CA91EC911981EC000BF16A964
:1034E0001EC920980C301EC02098006915902098A5
:1034F00000691490159903F035FF17902098C06863
:1035000014902098C0681390149903F02BFF4FF08B
:103510007C51159004F0E6F81690179903F03CFDE5
:1035200019902098806915902098C068149015997A
:1035300003F018FF179020984069159020980069B3
:103540001490159903F00EFF1690179903F024FDBF
:103550001890199902F092FE1F90219817904D49EA
:10356000179803F0FFFE18901F9904F029F84FF008
:103570007C51199003F0F6FE1E9000201A901B90CB
:103580001C901D901E9802F0CBFF1A901E9803F01D
:1035900085F84149199003F0E5FE1D9016A80D909D
:1035A000DDE91A23DDE91C01CDE90E23CDE9100187
:1035B0002098D0E90413C2688069CDE913131292F0
:1035C00015901598069011980590069903F0CAFE7B
:1035D00008901498049010980390049903F0C2FE88
:1035E0000690139802900F980190029903F0BAFE8A
:1035F0000490129802900E980190029903F0B2FE86
:103600000390049904F06EF80590069904F06AF8A6
:103610000790089904F066F809901498069011989C
:103620000590069903F09EFE089015980490109856
:103630000390049903F096FE0690129802900F985A
:103640000190029903F08EFE0490139802900E9858
:103650000190029903F086FE0390049903F09CFC0C
:103660000590069903F098FC0790089904F03AF841
:103670000A901398069011980590069903F072FE2F
:1036800008901298049010980390049906E00000A6
:10369000DF59375F35FA8E3C000080BF03F062FED1
:1036A0000690159802900F980190029903F05AFE27
:1036B0000490149802900E980190029903F052FE23
:1036C0000390049904F00EF80590069903F064FC49
:1036D0000790089903F060FC0B90129806901198DF
:1036E0000590069903F03EFE0890139804901098F8
:1036F0000390049903F036FE0690149802900F98F8
:103700000190029903F02EFE0490159802900E98F5
:103710000190029903F026FE0390049903F03CFC0B
:103720000590069903F0DEFF0790089903F034FC3A
:103730000C90DDE90934DDE90B120D98C0E9003485
:10374000C0E9021200BF16A91EC920980C301EC085
:1037500022B010BD10B504462168A06A03F0CEFE69
:1037600001D2012010BD0020FCE73FB58BB004461C
:10377000159D0020089009900A90069508A807C892
:10378000CDE90412039012A807C88DE8070020466F
:103790000CA90EC9FFF7B1F82046FFF7DBFF18B1FF
:1037A000012084F82C000AE094F82C00012806D1AE
:1037B00000212046FFF739FE002084F82C000FB0CE
:1037C00030BD30B589B004460D4605F10C000FC878
:1037D000CDE90723CDE90501059801907F480699B9
:1037E00003F0C0FD02907D48079903F0BBFD0390F4
:1037F0007A48089903F0B6FD049001A80FC884E840
:103800000F0000BF09B030BD10B5D1E90834CA6956
:1038100080E81C0010BD2DE9F04F8DB005460C4628
:10382000E168084603F09EFD0C90D4E9030103F023
:1038300099FD0B906169E06803F094FD0A90A1691D
:10384000E06803F08FFD0990D4E9040103F08AFDDC
:103850000890A169206903F085FD0790D4E905016E
:1038600003F080FD06900A99079803F095FB8146C6
:10387000616A03F077FD0746DDE9080103F032FFD6
:103880008346216A03F06EFD81462169084603F0F4
:1038900069FD4FF07C5102900C9803F023FF0190DA
:1038A000029903F079FB8346E16903F05BFD8246F0
:1038B000494603F071FB8046394603F06DFB06462E
:1038C0004FF0804103F04EFD03900B99069803F0F2
:1038D00009FF8146616A03F045FD074661690846B4
:1038E00003F040FD4FF07C5102900C9803F0FAFE7B
:1038F0000190029903F050FB8346216A03F032FDE8
:103900008146DDE9080103F047FB8346E16903F0E6
:1039100029FD8246494603F03FFB8046394603F0C5
:103920003BFB06464FF0804103F01CFD0490A1696B
:10393000084603F017FD82464FF07C510C9803F0C7
:10394000D1FE8346514603F027FB8146616A03F0AE
:1039500009FD07460B99069803F01EFB8346216A72
:1039600003F000FD81460A99079803F0BBFE8346E9
:10397000E16903F0F7FC8246494603F00DFB8046FF
:10398000394603F009FB06464FF0804103F0EAFC9C
:10399000059003A807C885E807000DB0BDE8F08FC3
:1039A00010B587B00E4CD4E901132268E468CDE964
:1039B0000534CDE9032103A91EC90C301EC01C38F3
:1039C00000210091019102919DE80E00C0E90823B9
:1039D000C1610449816207B010BD0000000080BFD2
:1039E00034790008000020412DE9FE4F0446894645
:1039F0009246C4F80090C4F804A0606803F0A0FAEE
:103A000007466A4A6A4B03F067F9054602F04CFF25
:103A1000A0600020E0600090019002909DE8070007
:103A2000C4E905122061BDE8FE8F0FB42DE9F04313
:103A300093B081460C4610AD1CA807C80AAE07C655
:103A4000D4E9051220690DAE07C60D990A9803F056
:103A500049FE07900E990B9803F044FE08900F99C9
:103A60000C9803F03FFE099007A807C885E80700F7
:103A700000BF10A807C81CAB07C3206803F060FA9A
:103A800005460E461C9803F05BFA21F000410746FC
:103A90002A46334603F01EFA1FD3206803F050FA7B
:103AA00005460E461D9803F04BFA21F000410746EB
:103AB0002A46334603F00EFA0FD3206803F040FA8B
:103AC00005460E461E9803F03BFA21F000410746DA
:103AD0002A46334603F0FEF90AD20020E0601CA813
:103AE00007C889E8070013B0BDE8F0035DF814FBD0
:103AF0003049E06803F002FC09D26168E06803F035
:103B00004BFAE0601CA807C889E80700EBE70DAD99
:103B1000D4E90512206910AE07AB07C31CA807C87B
:103B200004AB07C3A7683946049803F01BFC019057
:103B30003946059803F016FC02903946069803F0C2
:103B400011FC039001A807C886E8070000BF10A871
:103B500007C80AAB07C30A99079803F01DFA049037
:103B60000B99089803F018FA05900C99099803F03E
:103B700013FA069004A807C885E8070000BF0DA83F
:103B800007C8C4E9051220611CA807C889E8070016
:103B900000BFA8E710B504460649E06803F0AEFC94
:103BA00001D8012010BD0020FCE7000043FF0E8C6F
:103BB000BF15C03F0000A0400246302A05DB392A6D
:103BC00003DCA2F13003DAB20EE0412A05DB462A1B
:103BD00003DCA2F13703DAB206E0612A04DB662ACD
:103BE00002DCA2F15703DAB202F00F000001302923
:103BF00005DB392903DCA1F13003D9B20EE04129FC
:103C000005DB462903DCA1F15703D9B206E061299F
:103C100004DB662902DCA1F15703D9B201F00F03DE
:103C2000184370470146002209B90020704700225E
:103C300000E0521C11F8013B002BFAD11046F5E7C9
:103C400030B503460C4619460BB9002030BD01E0E3
:103C500001F8014B101EA2F10105AAB2F8D11846D5
:103C6000F4E7F0B505460E4613462A46344605B13C
:103C70000EB90020F0BDA24202D9E018904208D24D
:103C8000002103E0605C5054481C81B29942F9DB8A
:103C900007E0194603E0481E275C175481B200294B
:103CA000F9DC2846E6E7024602B109B90020704770
:103CB000134603E011F8010B02F8010B0878002805
:103CC000F8D110701846F2E7024601E0521C491C78
:103CD000107828B1087818B110780B789842F5D090
:103CE00010780B78C01A7047020E0A70020C4A70E6
:103CF000020A8A70C87070470146002008780002E6
:103D00004A78104300028A7810430002CA781043B0
:103D100070472DE9F0410646884614460027FB48C7
:103D20000078012801D1BDE8F0813146384600F025
:103D3000CDFA07460021384600F0C8FA0746254666
:103D4000E01704EB1060C0F30721384600F0BEFA1C
:103D50000746E01704EB10600012A4EB0020C1B28C
:103D6000384600F0B3FA074622464146384600F08E
:103D7000B3FA07463A460321072000F0DEFA012095
:103D8000D1E770B504460D460026E04800780128CA
:103D900000D170BD2146304600F098FA0646012158
:103DA000304600F093FA06460021304600F08EFAC5
:103DB00006460121304600F089FA06462DB9002159
:103DC000304600F083FA064604E00121304600F058
:103DD0007DFA064632460321072000F0AEFA0120A4
:103DE000D7E770B505460C460026C848007801287C
:103DF00000D170BD2946304600F068FA064602211F
:103E0000304600F063FA06460021304600F05EFAC4
:103E100006460421304600F059FA0646210E304687
:103E200000F054FA0646C4F30741304600F04EFA5B
:103E30000646C4F30721304600F048FA0646E1B2D0
:103E4000304600F043FA064632460321072000F0D0
:103E500074FA0120CDE72DE9F04106468846144664
:103E60000027AA480078012801D1BDE8F081314639
:103E7000384600F02BFA07460321384600F026FAB0
:103E800007462546E01704EB1060C0F307213846CB
:103E900000F01CFA0746E01704EB10600012A4EBD8
:103EA0000020C1B2384600F011FA074622464146CA
:103EB000384600F011FA07463A460321072000F081
:103EC0003CFA0120D1E770B504460E4600258F4824
:103ED0000078012800D170BD2146284600F0F6F98F
:103EE00005460421284600F0F1F905460021284640
:103EF00000F0ECF905460121284600F0E7F90546F7
:103F00003146284600F0E2F905462A4603210720FB
:103F100000F013FA0120DEE770B505460C460026D6
:103F20007A480078012800D170BD2946304600F05B
:103F3000CDF906460521304600F0C8F906460021B5
:103F4000304600F0C3F9064644F0FF00FF280AD1CE
:103F50000121304600F0BAF90646E1B2304600F0E1
:103F6000B5F9064632E04FF6FF7020434FF6FF7179
:103F7000884210D10221304600F0A8F90646C4F369
:103F80000721304600F0A2F90646E1B2304600F0C3
:103F90009DF906461AE00421304600F097F90646DE
:103FA000210E304600F092F90646C4F30741304630
:103FB00000F08CF90646C4F30721304600F086F97C
:103FC0000646E1B2304600F081F90646324603214A
:103FD000072000F0B2F90120A6E7024610787047EA
:103FE00002461078704710B503460C461846FFF796
:103FF00083FE10BD46490968464A1268891A01299C
:104000001CD044490968424A1268914206D9414984
:1040100009683F4A1268891A87290FD23D490A6800
:104020003D498A4202D387393A4A116039490968C1
:10403000087038490968491C364A1160704730B524
:1040400004460D46002300BF04E0E05CFFF7D2FF0A
:10405000581C83B2AB42F8DB30BD70B5002400259C
:1040600009E000F0ADFA2D490A880988491C2B4B5C
:1040700019802B49885429480088472803D200F02A
:1040800095FA0028EDDC25480088072800DA70BD85
:104090004EE02348005D552802D0601C84B247E002
:1040A0001F49601C085CAA2802D0601C84B23FE053
:1040B0001B49A01C085C10B1A01C84B238E0184950
:1040C000201D085C4FF6FF7101EA00251449601DB0
:1040D000085CC01D284485B24E2D02D9E01C84B274
:1040E00026E00E480088001BA84200DA25E06A1E80
:1040F00091B20B4A101900F000F96119491E084AE3
:10410000515C88420ED0E01C84B211E064000020B3
:10411000600000205C000020C20100205A00002046
:10412000F4000020204600F0D8F9601984B200BFE6
:1041300027480088001B0728ABDA00BF2448008806
:10414000001B2349088008460088002806DD214816
:1041500001191F4802881F48FFF783FD00BF96E73B
:104160001D481E4908601E49086000201D4908704E
:10417000FF201D49087070471C480078704710B533
:1041800000201A49087000220321042000F0D5F80D
:1041900010BD17480078704770B504460025002010
:1041A000134908702146284600F090F8C5B22A4607
:1041B0000321052000F0C1F870BD0B48007870475E
:1041C00010B5002203210E2000F0B7F810BD00004A
:1041D0005A000020F40000203B0100205C00002079
:1041E00060000020640000206700002065000020BF
:1041F0006600002010B504462046FDF780FA10BD89
:1042000010B500216520FFF75EFE00216620FFF754
:10421000B8FD00216720FFF7B4FD10BD2DE9F04186
:1042200006460F4639463046FFF7DAFE054635B1F9
:10423000012D05D0022D04D0032D04D102E003E0AE
:1042400002E001E000E000BF00BF29466520FFF763
:104250003AFE0446012C01D1BDE8F0810020FBE7C5
:104260002DE9F04104460D4629462046FFF7B5FEEC
:10427000074639466620FFF784FD0646012E01D128
:10428000BDE8F0810020FBE72DE9F04105460E4630
:104290001746652D02D0662D0CD105E03946304613
:1042A000FFF7BCFF044606E039463046FFF7D8FF6B
:1042B000044600E000BF00BF2046BDE8F0810320B7
:1042C000704708B901B100BF70470000C84B1A1809
:1042D0001170431C98B270472DE9F04104460E4618
:1042E0001546C34807192A4631463846FFF7B9FC38
:1042F000601984B22046BDE8F08130B50246002046
:10430000002305E012F8015B2C18E0B25C1CA3B29C
:104310008B42F7DB30BD70B504460D4604B105B9DC
:1043200070BD03E02078FFF765FF641C281EA5F12F
:1043300001018DB2F6D100BFF2E72DE9F04105464B
:104340000E46144600275520A949891F0870AA2047
:10435000487008468670C570201208714C71E01DC7
:1043600084B2601E81B2A248801FFFF7C6FF0746D5
:10437000601E9F49891F0F5421469D48801FFFF7EB
:10438000CAFFBDE8F08110B500249A48007840B912
:1043900000212046FFF79AFFC4B20120954908701A
:1043A00004E001212046FFF791FFC4B22246032119
:1043B0000020FFF7C2FF10BD3EB500240020009092
:1043C000019002908CA0FFF72DFC85B22A468AA1AD
:1043D0002046FFF781FFC4B289A0FFF723FC85B216
:1043E0002A4687A12046FFF777FFC4B289A0FFF7CE
:1043F00019FC85B22A4687A12046FFF76DFFC4B29B
:1044000086A0FFF70FFC85B22A4684A12046FFF75D
:1044100063FFC4B283A0FFF705FC85B22A4681A1E1
:104420002046FFF759FFC4B280A0FFF7FBFB85B21F
:104430002A467EA12046FFF74FFFC4B27CA0FFF7BB
:10444000F1FB85B22A467AA12046FFF745FFC4B2A8
:10445000224603210120FFF770FF3EBD10B5002466
:10446000224603210220FFF768FF10BD70B5054604
:10447000FFF725FF0646002407E06E4810F81400F9
:10448000A84200D103E0601CC4B2B442F5DB00BF17
:10449000204670BD2DE9F0470446267894F8018047
:1044A000A0784FF6FF7101EA0025E078284485B234
:1044B0003046FFF7DBFF07465E4800EB47004078D9
:1044C000404502D00020BDE8F0872A46211D304635
:1044D000FFF7DAFE81464846F5E72DE9F05F04462E
:1044E0005549E01C11F80080B8F10F0F5AD2DFE8EF
:1044F00008F0080B0E111C2024594A5959595959D2
:104500004D00FFF740FF4EE0FFF756FF4BE0FFF78F
:10451000A5FF48E04849A01D085C484908700022F2
:1045200003210846FFF709FF3DE0012044490870D8
:1045300039E001204349087035E03F49601D095CBE
:104540003D4A201D105C41EA0027002518E0A01D0F
:104550002844801C3849085C4FF6FF7101EA0026A8
:10456000A01D2844C01C3449085C304486B2214454
:10457000891D4819FFF78EFF8346301D284485B2F8
:10458000BD42E4DB0FE0FFF73BFE0CE02A49A01D33
:1045900011F80090E01D11F800A051464846FFF7C1
:1045A00090FE00E000BF00BFBDE8F09F2648006815
:1045B00026490968884201D0012070470020FCE7A5
:1045C00022490968204A126891420FD01F490A689F
:1045D0001F498A4202D387391C4A11601B49096866
:1045E00008781A490968491C184A11607047000088
:1045F000C8010020680000207B2270223A220000BF
:1046000036716B766E6D66636F7737696E736B7438
:1046100000000000222C2276223A2200312E302E79
:1046200030000000222C226D223A000032000000EF
:104630007D00000044790008F4000020670000209D
:1046400065000020660000205C0000206000002063
:10465000C20100207CB51D4616460C00009001D01A
:104660002044401E074B7B442A4669460190304651
:1046700000F001F905461CB10020694600F00EF972
:1046800028467CBD3D02000010B5203AC0F00B80EA
:10469000B1E81850203AA0E81850B1E81850A0E846
:1046A0001850BFF4F5AF5FEA027C24BFB1E81850A0
:1046B000A0E8185044BF18C918C0BDE810405FEA10
:1046C000827C24BF51F8043B40F8043B08BF70478C
:1046D000D20728BF31F8023B48BF11F8012B28BF91
:1046E00020F8023B48BF00F8012B70477047704725
:1046F000704710B500F0C2FA006810BD10B504464E
:1047000000F0BCFA046010BD70B50446856900680D
:10471000C10601D5302600E02026C00707D070BDB5
:10472000D4E9012130469047206A401C20626D1E6A
:10473000F6D570BD70B5044685690078C00707D10D
:1047400070BDD4E9012120209047206A401C2062DE
:104750006D1EF6D570BD09684A0501D540B2704797
:10476000C905FCD500B2704709684A0501D5C0B239
:104770007047C905FCD580B2704770B50C46054638
:10478000012A05D02878800600D5EA69002302E0D6
:10479000012305E05B1C934202D2E05C0028F9D1C2
:1047A000A869E618C01AA861286A18442862284631
:1047B000FFF7AAFF04E0D5E9012114F8010B9047A7
:1047C000B442F8D32846FFF7B5FF70BD2DE9F0419C
:1047D0000646002410687529314616A510D0FFF74B
:1047E000BAFF002802DA404213A507E031688A07C1
:1047F00001D512A502E0490704D511A5012401E065
:10480000FFF7B2FF00210A2206F1240709E0B0FBFE
:10481000F2FCB0FBF2F302FB1C0030307854184677
:10482000491C0028F3D123462A463046BDE8F04112
:1048300000F06DBA000000002D0000002B00000009
:104840002000000011680268006A530501D5087055
:104850000AE0D30501D5088006E0130603D5C21788
:10486000C1E9000200E008600120704701694A1CAC
:1048700002610878704700B58FB0CDE901310021A1
:10488000059105497944CDE903101146684600F0C9
:1048900031F90FB000BD0000E5FFFFFF0A6802F824
:1048A000010B0A607047D1E900239A4202D2531CDF
:1048B0000B601070704700002DE9FF5F15468A46B7
:1048C0000446DFF8AC80F8440027D8E900103E46E3
:1048D000CDE9001010E03AF816106A4602A800F080
:1048E00029FE411C07D02178890603D5E2693918D1
:1048F00091420DD80744761C2078800602D5E069E5
:10490000B84205DDAE42E6DB3AF816000028E2D1F7
:10491000A069C01BA0612046FFF7F6FED8E9001091
:10492000CDE90010002017E03AF818106A4602A8F6
:1049300000F000FEB0F1FF3F81460BD000250DF1E5
:10494000080B05E0D4E901211BF8050090476D1C18
:104950004D45F7D308F10100B0428046E4DB206A00
:10496000384420622046FFF7E5FEBDE8FF9F0000C7
:10497000823000002DE9F0418046D21D22F007026E
:104980000025D2E90002F52915A614D0011E72F106
:10499000000106DA0023D0EB030063EB020211A64C
:1049A00008E0D8F800108B0701D50FA602E04907F0
:1049B00001D50EA601251146002408F1240704E0C4
:1049C00000F060F930323A55641C50EA0102F7D128
:1049D0002B46324621464046BDE8F04100F097B9EB
:1049E000000000002D0000002B000000200000004F
:1049F00030B4002100F1240408E002F00705D208D9
:104A0000303542EA4372DB086554491C52EA03051B
:104A1000F3D10468002310A2250707D5A40600D40B
:104A200021B1C46901230DA2641EC46130BC00F031
:104A30006EB910B5044621461068FFF795FE024690
:104A40002046BDE810400023D2E7D21D22F0070126
:104A5000D1E90023CCE70000000000003000000096
:104A6000F0B40D460188090502D5214C7C4402E0D2
:104A70001F4C7C440E34002100F1240608E002F0B3
:104A80000F071209E75D42EA03721B097754491CBC
:104A900052EA0307F3D102780023120704D5702DE0
:104AA00006D009B1022311342246F0BC00F02FB920
:104AB00001231034F8E770B504460D46214610680E
:104AC000FFF752FE024629462046BDE8704000230B
:104AD000C6E7D21D22F00703D3E90023C0E703682D
:104AE000126843F0200303600823C3610023B7E783
:104AF000E42E00002DE9F05F894604464FF0000ADD
:104B0000DFF874B1FB44C0F820A02046E168884774
:104B1000002874D0252806D0D4E901219047206AC6
:104B2000401C2062F1E700265F462046E168884786
:104B30002028054607DB312D05D2781910F8200C06
:104B400008B10643F1E7B00701D526F00406C4F822
:104B50001CA00027C4F818A02A2D09D0284601F06F
:104B6000F3FA38B304EB8708303DC8F8185019E061
:104B700059F8041B204604EB87029161E1688847DD
:104B8000012F054618D1E069002820DA26F020061A
:104B90001DE0D8F8180000EB800005EB400030382D
:104BA000C8F818002046E1688847054601F0CCFAAD
:104BB0000028EED1012F0AD02E2D08D12046E16821
:104BC00088477F1C0546022F46F02006C4DBA069FB
:104BD000002803DA404246F00106A061F00701D048
:104BE00026F010066C2D0BD0682D09D04C2D39D035
:104BF0006A2D35D0742D35D07A2D33D016E038E0BB
:104C0000E1682F4620468847B842054609D16C2FF7
:104C100026D04FF48060E168064320468847054669
:104C200004E06C2F1AD04FF4807006430DB3A5F149
:104C30004100192802D8203546F400664A46294624
:104C4000204626604E46FBF7ADFA80B101280BD016
:104C5000F61D26F0070000F1080956E74020E4E7BA
:104C60008020D8E70020D6E706F104094DE7284662
:104C700052E7206ABDE8F09F742E0000004870479C
:104C8000FC01002030B5B0F10A024FEA900E71F13C
:104C900000034EEA817EB0EB0E0061EB91014FEA1A
:104CA000101E4EEA017E10EB0E0041EB11114FEA8F
:104CB000102E4EEA016E10EB0E0041EB11214FEA6F
:104CC000104E4EEA014E10EB0E0041EB1141401820
:104CD00041F100014FEAD00040EA41704FEAD101B2
:104CE00010EB80054FEA810444EA907444EB010420
:104CF0006D1944EB0404521BA3414FF0000348BF5D
:104D00000A3200D530BD401C41F1000130BD2DE913
:104D1000F0470D4699469246044600F12408016882
:104D2000880604D5E06921F01001216000E001202F
:104D3000A84201DD471B00E00027A1697A1902EBB8
:104D40000900081AA0612078C00602D42046FFF7A7
:104D5000DBFC002608E0D4E901211AF806009047A0
:104D6000206A401C761C20624E45F4DB2078C00689
:104D70000AD52046FFF7C8FC06E0D4E9012130201F
:104D80009047206A401C2062381EA7F10107F4DC1E
:104D900007E0D4E9012118F805009047206A401C7B
:104DA0002062281EA5F10105F3DC2046FFF7C2FCB6
:104DB0002078000602D50220BDE8F0870120FBE73D
:104DC00070472DE9FF4F0C461E464FF0FF378BB062
:104DD000D2E90001DDF860800A908A46C1F30A55E5
:104DE00005B93D46002108464FF00000BAF1000F1A
:104DF00000F4400005DA00EB80004FF4400101EAC6
:104E000050004FEA9059B9F1010F00DDB9460A98F8
:104E100050EA4A000ED044F61050A5F2FF35454343
:104E20002F14B8F1000F1ED07542291E1EDDC9F1E6
:104E300000021CE0B8F1010F4FF0000001D030215A
:104E400003E0F24305E02154401CB042FBDB304656
:104E50000022002121540B99C1F80880C1E90020EB
:104E60000FB0BDE8F08FBD1B6D1CDEE74A4600DACF
:104E7000694206A800F0F4FB06AB93E8070003AB19
:104E800083E8070050460A9900F0ADFC8DE8070062
:104E9000A0F500501F3800900398002D0ADD42F263
:104EA0001F014A460844002303A90390684600F006
:104EB00016FF09E0A0F500504A461F38002303A959
:104EC0000390684600F020FF8DE807000004000C06
:104ED00003D04FF0FF30410800E01046B8F1000F5A
:104EE00003D00022009215461EE0751E05D4FFF780
:104EF000C9FE303262556D1EF9D5B3460122084312
:104F000002D000227F1C04E02078302801D100224A
:104F10007F1E002A099784D01DE0112D07DAFFF7C4
:104F2000B1FE303262556D1C50EA0102F5D10843E2
:104F300002D00098C8B10EE00021681E05E0235C95
:104F4000625C63542254401E491C8142F7DBAB462D
:104F5000A81B401E0990002004F80B000B98099A2A
:104F6000C0F80880C0E9002B7AE711264FF000084E
:104F700057E72DE9F04F88460446D21D22F007017D
:104F800091B0D1E90001CDE90A0100F0F4FF024639
:104F90000B98C00F01D02D2007E02068810701D5B4
:104FA0002B2002E0202101EAC000032A099001D051
:104FB000072A05DB03464146204600F011FB0BE1C2
:104FC0002078800601D5E06900E00620B8F1650F81
:104FD000814606D0B8F1660F18D0B8F1670F70D1CE
:104FE00031E00020B9F1110F009001DB112301E045
:104FF00009F101030AAA01A90CA8FFF7E2FEDDE905
:105000000C70002609F10105834647E001204B465C
:1050100000904FF000470AAA01A90CA8FFF7D1FEA3
:10502000DDE90DB00C995D46002610B909F10100CB
:105030000D18B9EB050003D4C0F1FF3609F10105E5
:10504000A5EB09002BE0B9F1010F01DA4FF00109DE
:105050000020B9F1110F0090484601DD112300E056
:1050600003460AAA01A90CA8FFF7ABFEDDE90C7004
:105070004D4600268346207800070AD4AB4500DA67
:105080005D4601A8012D04DD411911F8011C3029EC
:1050900007D04F4502DA17F1040F04DA01208246E7
:1050A0000FE06D1EEEE7002F02DCED1B3E4403E037
:1050B000781CA84200DD7D1CB81B00F1010A4FF0EE
:1050C00000472078000703D4AA4501DB4FF0FF3AE0
:1050D0000021B7F1004F0DF143088DF8431024D0A3
:1050E00002202B23002F01DA7F422D230A21021EEA
:1050F000A0F1010000DC5FB197FBF1FC97FBF1F23E
:1051000001FB1C7C17460CF1300C08F801CDEEE7D2
:10511000A8F1010003702188090501D5452100E0AF
:105120006521A0F1010800F8011C09980FA9A1EB65
:105130000807FF1D00B10120411901EBEA70A169C8
:105140003844081A401EA0612078C00602D42046C8
:10515000FFF7DAFA099828B1D4E901219047206ACB
:10516000401C20622078C00622D52046FFF7CCFAEA
:105170001EE0002E04DBB34502DD01A8805D00E0E7
:105180003020D4E901219047206A401C2062761C1F
:10519000AAF101005FEA000A0AD100F01DFAC06816
:1051A0000168405CD4E901219047206A401C2062DC
:1051B000281EA5F10105DCDC07E0D4E9012118F87F
:1051C000010B9047206A401C2062381EA7F101079E
:1051D000F3DC2046FFF7AEFA032011B041E60000F1
:1051E0002DE9F04F04460D46D21D22F0070089B08C
:1051F000D0E900974846394600F0BDFE0246F80F58
:1052000001D02D2307E02068810701D52B2302E080
:10521000202101EAC0038DF820300BB1012000E00D
:105220000020032A824601D0072A04DB29462046B3
:1052300000F0D6F93FE12078800601D40D2500E08A
:10524000E569C7F30A560D2D49DA00214FEA175BCD
:1052500008464FF00000002F00F4400007DA00EB92
:1052600080004FF4400100EBD07001EA600081152E
:10527000012901DD4FF0FF3100224FEA850CBCF11E
:10528000180F06D31346ACF118004FF08052C240FD
:1052900003E04FF4801323FA0CF30CF10C0CBCF177
:1052A000200F04D3ACF1200C09FA0CF001E007FA4E
:1052B0000CF000294FF0004801DD18B90FE00ED1C5
:1052C00040450CD319EB02095F4121B9404502D199
:1052D0009F4329EA0209BBEB175F00D0761C2088A8
:1052E000000502D57B48784402E07A4878441938B2
:1052F00008AA302302F80A30037C0AF10101002ECB
:105300000AF1020A53546A4602DC4FF0300101E010
:105310004FF031014FF001088DF8001002D0A6F2D5
:10532000FF3603E059EA470100D06B4E002D02DC46
:105330002178090704D54FF002082E218DF80110BD
:10534000C44600210BE0C7F303433F01C35C491C83
:105350006D1E02F80830052908F1010801DA002D58
:10536000F1DC00210CE000EB1973491C1B786D1E69
:10537000082902F808304FEA091908F1010801DA92
:10538000002DF0DC21688B0602D516E0A8F101089B
:10539000E04505DD02EB080313F8013C302BF5D0A6
:1053A000B8F1000F09DD02EB080313F8013C2E2BC6
:1053B00003D1090701D4A8F10108002D05DD3E2124
:1053C00002F808106D1E08F10108407C002E02F85A
:1053D000080008F1010804DA2D20764202F80800DE
:1053E00002E02B2002F808000A214FF47A7086426E
:1053F00008F101080BDB96FBF0F3303302F80830BC
:1054000096FBF0F308F1010800FB136601E0642E3F
:105410000CDB642096FBF0F3303302F8083096FB87
:10542000F0F308F1010800FB136601E00A2E06DB29
:1054300096FBF1F0303002F8080008F1010896FB05
:10544000F1F001FB1060303002F80800A16908F1AA
:10545000010808EB050202EB0A00081AA061207897
:10546000C00602D42046FFF74FF9216A08AE01EBCF
:105470000A00206204E0D4E9012116F8010B9047EC
:10548000BAF1010AF7D22078C00602D52046FFF70C
:105490003BF96E4609E016F8010B3E280FD0D4E91F
:1054A00001219047206A401C2062B8F10108F2D225
:1054B0002046FFF73FF909B00320BDE8F08F206ACE
:1054C0002844206203E0D4E90121302090476D1E7A
:1054D000EBD3F8E7D926000002FCFFFF10B54369C3
:1054E00013B1AFF3008001E0FFF747F9012010BDD1
:1054F000127800F124010A7000224A700122EDE7BF
:1055000011684FF0FF32E9E710B5436913B1AFF30B
:10551000008001E0FFF7D0F9012010BD128800F1F2
:10552000240182840022C2840122EDE711684FF039
:10553000FF32E9E770B516460C46054600F044F820
:10554000036893F80101012806D0FF2C0FD8185DDD
:1055500068B101202C7070BDD3F807013246214696
:1055600003F2071303442846BDE8704018474FF084
:10557000FF3070BD00487047FC0100207546FFF702
:10558000F9FFAE4605006946534620F00700854600
:1055900018B020B5FDF76AF9BDE820404FF00006CD
:1055A0004FF000074FF000084FF0000B21F007010B
:1055B000AC46ACE8C009ACE8C009ACE8C009ACE84E
:1055C000C0098D467047000010B500F005F8001DB9
:1055D00010BD00BFA9120000004870471C02002047
:1055E0002DE9F0411F46044603260168072A01F40D
:1055F000006004DB08B116A505E016A503E008B1BC
:1056000015A500E015A521F010002060A069C01EBE
:10561000A0610FB1401EA0612046FFF775F84FB1A1
:10562000D4E9012138469047206A401C2062C01C02
:10563000206206E0206AFAE7D4E9012115F8010B9F
:105640009047761EF8D22046FFF774F8BDE8F08147
:105650004E414E006E616E00494E4600696E660016
:105660002DE9F047814616468AB0354878440DC882
:105670008DE80D0032487844801C03AC0DC884E8E6
:105680000D0041F69B300844372190FBF1F290FB6E
:10569000F1F5A5F1800501FB12041B3C02D5644223
:1056A000012000E00020DFF898A080460027FA449F
:1056B000AAF1BE0A0EE0E0070AD03246684607EBC0
:1056C000470101230AEB810100F01EFB8DE8070072
:1056D00064107F1C002CEED1194F7F44AE3F19E0BF
:1056E000E80715D007EB04100DF1180A90E80E003A
:1056F0008AE80E00C068F04201D19819089032463D
:10570000012306A903A800F0FFFA03AB83E8070012
:105710006D10641C002DE3D14FF001033246694641
:10572000B8F1000F03A802D000F0D9FA01E000F0B0
:10573000EBFAC9E90001C9F808200AB0BDE8F08712
:10574000E423000010B50446AFF300802046BDE816
:105750001040FAF78ABD00004FF0013C50F8042BCE
:1057600051F8043B9A4221D1A2EB0C03934313EA74
:10577000CC1317D150F8042B51F8043B9A4215D1A1
:10578000A2EB0C03934313EACC130BD150F8042B78
:1057900051F8043B9A4209D1A2EB0C03934313EA5C
:1057A000CC13DBD04FF00000704700BFD01A01BA15
:1057B000B1FA81F101F0180122FA01F0CB40C1F1F8
:1057C0002001DBB2C0B2C01A2CFA01F3D11A914306
:1057D00011EAC311E6D1704701491820ABBEFEE7BC
:1057E0002600020070475FEA400C08BF91F0000FEE
:1057F0004FEA8C234FEAC12243EA51514FEA1C5031
:1058000018BF00F5F0404FEA300018BF41F00041EA
:105810005FEA6C5C00F02980BCF1FF3F08BF40F0FC
:1058200080407047130C06BF12044FF0100C4FF06D
:10583000000C130E04BF12020CF1080C130F04BF6E
:1058400012010CF1040C930F04BF92000CF1020C36
:10585000D30F04BF52000CF1010C11464FF00002AF
:10586000A0F11F00A0EB0C00704711F0004F08BF23
:10587000704731F000413FF4D5AF0B0C06BF09046F
:105880004FF0100C4FF0000C0B0E04BF09020CF18E
:10589000080C0B0F04BF09010CF1040C8B0F04BFA3
:1058A00089000CF1020CCB0F04BF49000CF1010C74
:1058B000CCF12003A0EB0C0022FA03F302FA0CF265
:1058C00041EA030100F10100704720F07F4C80EABB
:1058D000030023F07F47ACEB070303F57C5300F094
:1058E000004003F1FF032DE980494FEA154B09B44D
:1058F0004FEA144325EA0B4E24EA03480FF204262C
:1059000006EB132749083E785FEA320203FB06677D
:10591000C7F5000707FB06F64FEA54374FEAD646AD
:1059200006F1020607FB066CCCF1005C4FEA1C474F
:105930002CEA074C07FB06F40CFB06F504EB1546B6
:105940004FEA961634BF00204FF000404FEAD1379F
:1059500006FB07FC4FEA1C4C0CFB0BF7D21B03FBAE
:105960000CF761EB07010CFB0EF7B0EB074072EB95
:1059700017420CFB08F734BFA2EB0742B2EB074219
:1059800061EB17414FEA0C444FEA910706FB07FC15
:105990004FEA1C4C0CFB0BF7B0EBC74072EB5732D5
:1059A00003FB0CF734BFA2EBC742B2EBC74261EB7B
:1059B00057310CFB0EF7B0EBC70072EB57720CFBC4
:1059C00008F734BFA2EBC702B2EBC70261EB577115
:1059D000039F4FEA816141EA921104EBCC044FEA44
:1059E000D1374FEA826206FB07FC42EA90124FEA87
:1059F00080604FEA1C4C0CFB0BF7D21B03FB0CF72F
:105A000061EB07010CFB0EF7B0EB074072EB17429E
:105A10000CFB08F734BFA2EB0742B2EB074261EB85
:105A200017414FEA8C554FEA910704EB9C2406FB83
:105A300007FC4FEA1C4C0CFB0BF7B0EBC74072EBBA
:105A4000573203FB0CF734BFA2EBC742B2EBC7429D
:105A500061EB57310CFB0EF7B0EBC70072EB5772DE
:105A60000CFB08F734BFA2EBC702B2EBC70261EB35
:105A7000577115EB4C254FEA816141EA92114FEACB
:105A800082624FEAD13742EA901206FB07FC44F1EA
:105A900000044FEA80604FEA1C4C0CFB0BF7D21B52
:105AA00003FB0CF761EB07010CFB0EF7B0EB0740B3
:105AB00072EB17420CFB08F734BFA2EB0742B2EBC4
:105AC000074261EB174115EB1C154FEA813141EAA2
:105AD00092414FEA823242EA90424FEA80304FEAE6
