:020000040800F2
:100000000004002013390008510F0008530F0008A6
:10001000570F00085B0F00085F0F0008000000008A
:10002000000000000000000000000000630F000856
:10003000650F000800000000670F0008690F000846
:1000400073030008333900083339000833390008D6
:1000500033390008333900083339000833390008D0
:1000600033390008333900083339000833390008C0
:1000700033390008333900083339000833390008B0
:1000800033390008333900083339000833390008A0
:100090003339000833390008333900083339000890
:1000A0003339000833390008333900083339000880
:1000B000F11A00088F1B0008333900083339000893
:1000C0003339000833390008333900083339000860
:1000D00033390008F919000833390008111A0008EB
:1000E0003339000833390008333900083339000840
:1000F0003339000833390008333900083339000830
:10010000333900083339000833390008333900081F
:10011000333900083339000833390008333900080F
:1001200033390008333900083339000833390008FF
:1001300000F002F800F094F80AA090E8000C824465
:100140008344AAF10107DA4501D100F089F8AFF242
:10015000090EBAE80F0013F0010F18BFFB1A43F0A5
:1001600001031847F090000010910000103A24BFDE
:1001700078C878C1FAD8520724BF30C830C144BF0C
:1001800004680C607047000000230024002500264E
:10019000103A28BF78C1FBD8520728BF30C148BFEA
:1001A0000B6070476E2905F0D386702906F01D801C
:1001B000662908F00087652908F0FD86672908F0A0
:1001C000FA86612908F0F98603681B0A28BF41F006
:1001D0008001692905F08086642905F07D867529EE
:1001E00005F07A866F2905F0AA87782905F0E98756
:1001F000E92905F04587E42905F04287F52905F04E
:100200003F87EF2905F0A787F82905F0E8870368FD
:10021000DB0928BF41F08001632906F00D857329B1
:1002200006F01285E32906F01D85F32906F02285E4
:10023000002070471FB59DE8030005F0A9FD06F0FA
:1002400073FD04000020002107F00CFF401C6060DB
:100250000020002107F0F0FEE0601FBD10B510BDCA
:1002600006F034FD1146FFF7E5FF00F056FA06F000
:1002700011FE03B4FFF7F2FF03BC06F041FE0000DD
:1002800010B501F0EBFC4FF4803001F007FD01F0F8
:1002900044FDFE49087008460078012826D1002058
:1002A00001F081FD002001F090FD4FF4806001F02D
:1002B00083FD022003F092F8102003F0A3F84FF41E
:1002C000E0114FF4803001F051FD012001F05AFDA2
:1002D00000BF392001F005FD0028FAD0022001F00E
:1002E00054FD00BF01F05AFD0828FBD110BD08B530
:1002F00001213C2001F020FE4FF40070ADF8000019
:1003000018208DF8030003208DF802006946E048AC
:1003100002F026FF4FF48060ADF8000004208DF855
:1003200003006946DA4802F01BFF08BD08B54FF428
:10033000E06002F047FE25208DF8000000208DF8D7
:100340000100684602F043FE08BD10B50121C80255
:1003500001F0FFFD4FF4C07002F0FBFD412002F000
:1003600001FE502002F019FE02F022FE02F00BFE08
:1003700010BD10B5502002F00AFE02F019FE10BDAB
:1003800010B504462146C34802F027FD00BF4021B6
:10039000C04802F079FD0028F9D010BD10B5002248
:1003A0006B21D02000F052FF07221146D02000F030
:1003B0004DFF06221A21D02000F048FF18221B21F1
:1003C000D02000F043FF08221C21D02000F03EFF87
:1003D00006221D21D02000F039FF10BD0FB410B54A
:1003E0009AB000241DA80090642101A8009B1C9ACB
:1003F00005F03CFC0DE001A8015DA64802F0EDFC13
:1004000000BF4021A34802F03FFD0028F9D0601C46
:1004100084B2642C03DA01A8005D0028EBD100202F
:1004200000901AB010BC5DF814FB70B505460E467E
:1004300000240CE0295D974802F0CFFC00BF40216A
:10044000944802F021FD0028F9D0601C84B2B44227
:10045000F0DB70BD2DE9F84F05460E46174698466D
:10046000DDE90AAB0024AA222146641C8A484254D2
:100470002146641C425402222146641C425400223C
:100480002146641C425400959DF801202146641CBD
:1004900042549DF800202146641C425400969DF869
:1004A00001202146641C42549DF800202046611C16
:1004B000CCB279490A5400979DF801202046611C6E
:1004C000CCB275490A549DF800202046611CCCB27C
:1004D00071490A54CDF800809DF801202046611C26
:1004E000CCB26D490A549DF800202046611CCCB264
:1004F00069490A54CDF800A09DF801202046611CEE
:10050000CCB265490A549DF800202046611CCCB24B
:1005100061490A54CDF800B09DF801202046611CC5
:10052000CCB25D490A549DF800202046611CCCB233
:1005300059490A540C9800909DF801202046611CEE
:10054000CCB255490A549DF800202046611CCCB21B
:1005500051490A540D9800909DF801202146601CD5
:10056000C4B24D4842549DF800202046611CCCB2D4
:1005700049490A540E9800909DF801202046611CBC
:10058000CCB245490A549DF800202046611CCCB2EB
:1005900041490A54201FC8704FF00009002006E0AE
:1005A0003D49095C494401F0FF09411CC8B2A04221
:1005B000F6DB2046611CCCB2374901F80090214699
:1005C0003548FFF732FFBDE8F88F77B587B00024D4
:1005D0000020069000250590AA222146641C0DF8F3
:1005E00001202146641C0DF8012001222146641CD3
:1005F0000DF8012006222146641C0DF80120274930
:10060000079808F0A3FA064608F024FA80B206908C
:100610009DF819202146641C0DF801209DF8182032
:100620002146641C0DF801201C49089808F08EFA38
:10063000064608F00FFA80B206909DF81920214670
:10064000641C0DF801209DF818202146601CC4B2DE
:100650000DF801201149099808F078FA064608F0CB
:10066000F9F980B206909DF819202046611CCCB2A1
:100670000DF800209DF818202046611CCCB20DF822
:1006800000209DF814202046611C09E00400002091
:100690000008014000380140040100200000C84269
:1006A000CCB20DF800209DF815202046611CCCB27C
:1006B0000DF800209DF816202146601CC4B20DF8EC
:1006C00001209DF817202046611CCCB20DF80020B7
:1006D00000222146601CC4B20DF8012001222046F0
:1006E000611CCCB20DF80020201FC0B28DF80300B1
:1006F000002005E01DF800102944CDB2411CC8B20D
:10070000A042F7DB2046611CCCB20DF80050214618
:100710006846FFF78AFE0AB070BDF6B0FFF7B0FD7D
:100720004FF4E13001F0A4F84FF4165001F002F953
:1007300000F046FCFFF732FE04F076FD40F2CF21D8
:10074000632001F04AFA05F045F8FE484FF07C516D
:100750000268FD4804F0ACF94FF07C51FB4803F00F
:10076000FDF8FB4A0021F94803F01CF900207490C1
:1007700075907290739070907190F64800686E90CA
:1007800000F051FF6F90F348BDF8BC11018098E371
:1007900004F0C7FC74A800F0A8FD72A800F0F6FDF4
:1007A00070A800F067FEBDF9C801399008F06EF935
:1007B0004C90BDF9CA01399008F068F94D90BDF927
:1007C000CC01399008F062F94E90BDF9D001399012
:1007D00008F05CF94990BDF9D201399008F056F95A
:1007E0004A90BDF9D401399008F050F94B90BDF909
:1007F000C001399008F04AF94690BDF9C20139901C
:1008000008F044F94790BDF9C401399008F03EF969
:1008100048902422D04967A805F042FA002064904D
:100820006590669000BF43A827904CA807C828ABE6
:1008300007C3242267A92BA805F032FAC74A07CAC2
:1008400034AB07C364A807C837AB07C32798242273
:100850002BA9149015A805F023FA21A80D9024A81F
:10086000069028A807C807AB07C337A807C80AAB74
:1008700007C30A98029007980190029908F026FB96
:1008800003900B98029008980190029908F01EFBC3
:1008900004900C98029009980190029908F016FBB8
:1008A000059003A90EC906980EC000BF24A807C86A
:1008B0000EAB07C334A807C811AB07C31198099042
:1008C0000E980890099908F041F90A901298099039
:1008D0000F980890099908F039F90B90139809902E
:1008E00010980890099908F031F90C900AA90EC9DE
:1008F0000D980EC000BF21A807C81EAB07C32098E3
:100900000E9017980D900E9908F020F910901F98EE
:100910000C9016980B900C9908F018F90E901E98F0
:100920000C9015980B900C9908F010F90D900E99F9
:1009300007F026FF0F90109907F022FF11902098E2
:100940000E901A980D900E9908F000F910901F98CB
:100950000C9019980B900C9908F0F8F80E901E98CE
:100960000C9018980B900C9908F0F0F80D900E99D7
:1009700007F006FF0F90109907F002FF12902098E1
:100980000E901D980D900E9908F0E0F810901F98A9
:100990000C901C980B900C9908F0D8F80E901E98AB
:1009A0000C901B980B900C9908F0D0F80D900E99B4
:1009B00007F0E6FE0F90109907F0E2FE139011A9E0
:1009C0000EC914980EC000BF00BF00BF24226249A8
:1009D00024315BA805F064F900BF40A82A9046A81E
:1009E00007C82BAB07C324225BA92EA805F058F932
:1009F0005B4A07CA37AB07C32A98209027A824224E
:100A00002EA9139014A805F04BF92BA807C81DAB0D
:100A100007C31F980D9016980C900D9908F096F842
:100A20000F901E980B9015980A900B9908F08EF86D
:100A30000D901D980B9014980A900B9908F086F869
:100A40000C900D9907F09CFE0E900F9907F098FE00
:100A500010901F980D9019980C900D9908F076F849
:100A60000F901E980B9018980A900B9908F06EF84A
:100A70000D901D980B9017980A900B9908F066F846
:100A80000C900D9907F07CFE0E900F9907F078FE00
:100A900011901F980D901C980C900D9908F056F825
:100AA0000F901E980B901B980A900B9908F04EF827
:100AB0000D901D980B901A980A900B9908F046F823
:100AC0000C900D9907F05CFE0E900F9907F058FE00
:100AD000129010A90EC913980EC000BF27A807C80E
:100AE00021AB07C337A807C824AB07C324981C90C1
:100AF00021981B901C9908F0E9F91D9025981C90ED
:100B000022981B901C9908F0E1F91E9026981C90E1
:100B100023981B901C9908F0D9F91F901DA90EC9A4
:100B200020980EC000BF00BF24220B49483152A8B4
:100B300005F0B6F800204F905090519000BF3DA8AE
:100B400027900FE008000020B8000020D40000200B
:100B5000008099450C000020A0900008180000209B
:100B60003000002049A807C828AB07C3242252A997
:100B70002BA805F095F8D34AD2E900109268CDE988
:100B8000350234914FA807C837AB07C327982422F2
:100B90002BA9149015A805F083F821A80D9024A87E
:100BA0000690DDE928202A99CDE907200991DDE9A1
:100BB00038213798CDE90B210A900A9802900798BE
:100BC0000190029908F082F903900B98029008981E
:100BD0000190029908F07AF904900C980290099813
:100BE0000190029908F072F9059003A90EC90698C0
:100BF0000EC000BF24A807C80EAB07C334A807C89F
:100C000011AB07C3119809900E980890099907F045
:100C10009DFF0A90129809900F980890099907F083
:100C200095FF0B901398099010980890099907F078
:100C30008DFF0C900AA90EC90D980EC000BF21A807
:100C400007C81EAB07C320980E9017980D900E99F9
:100C500007F07CFF10901F980C9016980B900C9941
:100C600007F074FF0E901E980C9015980B900C993D
:100C700007F06CFF0D900E9907F082FD0F90109910
:100C800007F07EFD119020980E901A980D900E9905
:100C900007F05CFF10901F980C9019980B900C991E
:100CA00007F054FF0E901E980C9018980B900C991A
:100CB00007F04CFF0D900E9907F062FD0F90109910
:100CC00007F05EFD129020980E901D980D900E99E1
:100CD00007F03CFF10901F980C901C980B900C99FB
:100CE00007F034FF0E901E980C901B980B900C99F7
:100CF00007F02CFF0D900E9907F042FD0F90109910
:100D000007F03EFD139011A90EC914980EC000BF44
:100D100000BF459800906C4937A8449B439A03F064
:100D2000E8FE37A807C843AB07C3684800680690C9
:100D300040A807C803AB07C33DA807C88DE8070054
:100D4000634843A90EC902F03CFE00BF3AA86049BF
:100D5000319036A803F099FD36A80FC8CDE93423A9
:100D6000CDE9320132982B9001462A9007F0EEFE31
:100D70004FF07C512C9008F0A9F8309035982890CD
:100D80000146279007F0E2FE2990309907F0F8FC21
:100D90002B903398279032982690279907F0D6FE0B
:100DA00029903598279034982690279907F0CEFE01
:100DB0002890299908F08AF82A902B9906F052FE7B
:100DC0002C9044492C9807F0C1FE2D903498269021
:100DD00032982590269907F0B9FE289035982690EC
:100DE00033982590269907F0B1FE2790289907F0AF
:100DF000C7FC4FF08041299007F0A8FE2A9006F02A
:100E00009FFD35492B9007F0A1FE2C9031492C987D
:100E100007F09CFE2E90339828900146279007F00B
:100E200095FE2990309907F0ABFC2B9035982790D0
:100E300032982690279907F089FE299034982790B8
:100E400033982690279907F081FE2890299908F079
:100E50003DF82A902B9906F005FE2C901D492C9800
:100E600007F074FE2F902DA90EC931980EC000BF57
:100E70001A48006802233890739A729900F0B3FC04
:100E800039909DF8E40030B1012808D002280AD03A
:100E9000032810D10BE012A0FFF7A0FA0FE016A074
:100EA000FFF79CFA0BE01AA0FFF798FA07E01EA0E4
:100EB000FFF794FA03E023A0FFF790FA00BF00BF0A
:100EC00000BF65E424000020B800002008000020D6
:100ED000D4000020E02E6542000080BF0C000020FE
:100EE0004D6F766520646972656374696F6E206901
:100EF000732075700A0000004D6F7665206469727A
:100F0000656374696F6E20697320646F776E0A0081
:100F10004D6F766520646972656374696F6E2069D0
:100F200073206C6566740A004D6F76652064697283
:100F3000656374696F6E2069732072696768740AEB
:100F4000000000004E6F204D6F76652121210A00C0
:100F5000704700BFFEE700BFFEE700BFFEE700BF2F
:100F6000FEE770477047704770470000002904DAB9
:100F70004A4211B22D22027001E020220270642246
:100F800091FBF2F23032D3B2421C1046137064224D
:100F900091FBF2F302FB13110A2291FBF2F23032C1
:100FA000D3B2421C104613700A2291FBF2F302FBEB
:100FB000131101F13002D3B2421C10461370704776
:100FC00008B54FF40050ADF8000003208DF8020082
:100FD00014208DF803006946FE4802F0C1F84FF472
:100FE0000040ADF8000003208DF8020014208DF8B9
:100FF00003006946F74802F0B3F808BD052001E098
:10100000411EC8B20028FBD1704700B54FF4004024
:10101000F0491031086080100860FFF7EFFFED48DD
:101020000830006808B9012000E0002000F400400A
:1010300008B1002000BD4FF40040E64914310860BB
:10104000FFF7DCFFE3480830006800F4004008B117
:101050000020EFE74FF40040DE4914310860FFF74D
:10106000CDFF0120E6E700B54FF40050D949143117
:101070000860FFF7C3FF4FF40040D6491431086001
:10108000FFF7BCFF4FF40050D24910310860FFF762
:10109000B5FF4FF40040CF4910310860FFF7AEFFB5
:1010A00000BD00B54FF40050CA4914310860FFF785
:1010B000A5FF4FF40040C74914310860FFF79EFFB9
:1010C0004FF40050C34910310860FFF797FF4FF409
:1010D0000050C04914310860FFF790FF00BD00B513
:1010E0004FF40050BB4914310860FFF787FF4FF4FD
:1010F0000040B84910310860FFF780FF4FF40050FE
:10110000B44910310860FFF779FF4FF40050B1493E
:1011100014310860FFF772FF00BD00B54FF40050B6
:10112000AC4914310860FFF769FF4FF40040A9494A
:1011300010310860FFF762FF4FF40050A5491031ED
:101140000860FFF75BFFA3480830006800F4004028
:1011500040B14FF400509F4914310860FFF74EFF33
:10116000002000BD4FF400509A4914310860FFF789
:1011700045FF0120F5E700B5024608231FE04FF4C4
:101180000050944914310860FFF738FF02F08000E6
:1011900028B14FF400408F491031086004E04FF44B
:1011A00000408C49143108605006020EFFF726FFFC
:1011B0004FF40050874910310860FFF71FFF181ED9
:1011C000A3F10101CBB2DAD14FF4005081491431BF
:1011D000086000BD00B50823002218037D491031C6
:1011E000086017E05006020E4FF4005079491431A0
:1011F0000860FFF703FF4FF4005076491031086094
:10120000FFF7FCFE73480830006800F4004008B1A6
:1012100042F00102181EA3F10101CBB2E2D14FF45A
:1012200000506C4914310860104600BD01B509E05A
:10123000002000E0401C4CF250318842FAD3009963
:10124000491E009100990029F2D108BD70B50646EB
:101250000C461546FFF7D9FE08B9002070BD304690
:10126000FFF789FFFFF759FF18B9FFF7FCFE0020D1
:10127000F4E72046FFF77FFFFFF74FFF2846FFF711
:101280007AFFFFF74AFFFFF7EEFE0120FFF7CEFFE0
:101290000120E3E770B504460D46FFF7B6FE08B936
:1012A000002070BD2046FFF766FFFFF736FF30B91C
:1012B000FFF7D9FE0120484908700020F1E72846D1
:1012C000FFF759FFFFF729FFFFF79FFE611CC8B228
:1012D000FFF751FFFFF721FFFFF77CFF0646FFF7FF
:1012E000FEFEFFF7C0FE3046DBE710B504463C21AA
:1012F000D020FFF7CFFF394908703B21D020FFF7FE
:10130000C9FF3649487008460078497840EA01200C
:1013100000B22080B4F90000A42190FBF1F000B2EB
:1013200020803E21D020FFF7B5FF2C4988703D2159
:10133000D020FFF7AFFF2949C87008468078C978E8
:1013400040EA012000B26080B4F90200A42190FBC1
:10135000F1F000B260804021D020FFF79BFF1F49D1
:1013600008713F21D020FFF795FF1C4948710846BE
:101370000079497940EA012000B2A080B4F9040064
:10138000A42190FBF1F000B2A08010BD2DE9F04146
:1013900004464421D020FFF77DFF10490870432107
:1013A000D020FFF777FF0D4948700846007849784C
:1013B00040EA012000B22080B4F9000007F02DF8C7
:1013C00007464FF06632064B06F0A0FE054606F0D3
:1013D000F5FF07E0000C014014000020360100205A
:1013E0006666304000B220804621D020FFF752FFD1
:1013F000724988704521D020FFF74CFF6F49C870B3
:1014000008468078C97840EA012000B26080B4F9CB
:10141000020007F002F807464FF06632684B06F00C
:1014200075FE054606F0CAFF00B260804821D02054
:10143000FFF730FF614908714721D020FFF72AFFED
:101440005E49487108460079497940EA012000B2B6
:10145000A080B4F9040006F0E0FF07464FF06632C2
:10146000574B06F053FE054606F0A8FF00B2A080D9
:10147000BDE8F08110B5044602223721D020FFF7E5
:10148000E5FE0220FFF7D2FE01220A211820FFF715
:10149000DDFE0220FFF7CAFE03211820FFF7FAFE47
:1014A0004649087004211820FFF7F4FE43494870AC
:1014B00008460078497840EA012000B220800521E2
:1014C0001820FFF7E7FE3D49887006211820FFF736
:1014D000E1FE3A49C87008468078C97840EA0120A0
:1014E00000B2608007211820FFF7D4FE334908714D
:1014F00008211820FFF7CEFE3049487108460079D0
:10150000497940EA012000B2A08010BD0FB52D48F6
:101510000088A0B90020ADF80000ADF80200ADF8D9
:101520000400294908602949086029490860012008
:101530002449088000230020108050809080BDF94D
:1015400000002149096808441F490860BDF90200EC
:101550001E49096808441D490860BDF90400C01A05
:101560001B49096808441A49086016480088C828B9
:101570001DD1154800681349098890FBF1F000B2AD
:101580001080124800680F49098890FBF1F000B202
:1015900050800F4800680B49098890FBF1F000B2B9
:1015A0009080002007490880012004B000BD054854
:1015B0000088401C034908800020F6E7360100201F
:1015C00066663040480000203C00002040000020BB
:1015D0004400002002468B88CB804B888B804A8059
:1015E000B1F90400B1F90230984208DDB1F90430D4
:1015F000B1F90600834202DD012008707047B1F99D
:101600000400B1F90230984209DAB1F90430B1F9B5
:101610000600834203DA002008700120EEE7022072
:1016200008700020EAE701B500208DF801000420D1
:101630008DF80000BDF80010084608BD07B58DF80C
:1016400001208DF80010BDF8003018460EBD37B5EA
:1016500082B01446082004F0B3FA05460020286042
:1016600068607A48007828B97948056045600020AC
:10167000774988607648DDE9021200F0EFF9BDF99C
:10168000080074490968084472490860BDF90A00F5
:1016900071490968084470490860BDF90C006F4938
:1016A000096808446D49086068480078401C67492B
:1016B00008700846007814281ED16946644800F076
:1016C000EDF9BDF9000063490968081A614908602D
:1016D000BDF9020060490968081A5F490860BDF950
:1016E00004005C490968081A5A490860574800789C
:1016F000401E5649087000BF564800685349097893
:1017000090FBF1F000B22080534800684F490978FF
:1017100090FBF1F000B26080504800684B490978B6
:1017200090FBF1F000B2A080002005B030BD30B5D4
:10173000044600254A492046FFF74CFF0546012D87
:101740000AD147480078012806D14548B0F904007D
:10175000642801DD012030BD0020FCE730B50446DF
:10176000002540492046FFF735FF0546012D0AD1E7
:101770003C48007838B93B48B0F9040010F1780FC4
:1017800001DA012030BD0020FCE730B50446002519
:1017900035492046FFF71EFF0546012D0AD1324884
:1017A0000078012806D13048B0F90400C82801DDCE
:1017B000012030BD0020FCE730B5044600252B4950
:1017C0002046FFF707FF0546012D0AD1274800787C
:1017D00038B92648B0F9040010F1FA0F01DA0120F7
:1017E00030BD0020FCE71FB51C46022C27D1BDF9F7
:1017F0000400FFF7CAFF18B100208DF800001DE0BB
:10180000BDF90400FFF7D8FF18B101208DF80000E2
:1018100014E0BDF90800FFF78AFF18B102208DF827
:1018200000000BE0BDF90800FFF798FF18B1032096
:101830008DF8000002E004208DF8000000BF00BF1A
:1018400000BFBDF80010084604B010BD58000020CD
:10185000400100204C0000205000002054000020D7
:101860005A000020620000206A0000207200002060
:1018700010B586B00446B4F5E13F02D9002006B0A9
:1018800010BD0121042000F057FB0121880300F066
:1018900053FB4FF40070ADF8040018208DF80700DA
:1018A00003208DF8060001A9684801F059FC4FF4A7
:1018B0008060ADF8040004208DF8070003208DF847
:1018C000060001A9614801F04BFC02940020ADF82C
:1018D0000C00ADF80E00ADF81000ADF814000C20AF
:1018E000ADF8120002A95A4801F099F9012240F21C
:1018F0002551574801F010FA002240F22771544850
:1019000001F00AFA4021524801F0CBFA25208DF867
:10191000000000208DF8010001208DF802008DF8F4
:101920000300684601F053FB0121494801F0E8F942
:101930000120A4E710B586B00446B4F5E13F02D912
:10194000002006B010BD0121082000F0F5FA0121A9
:10195000880400F0FEFA4FF48060ADF8040018200F
:101960008DF8070003208DF8060001A9394801F021
:10197000F7FB4FF40060ADF8040004208DF8070079
:1019800003208DF8060001A9324801F0E9FB02941A
:101990000020ADF80C00ADF80E00ADF81000ADF869
:1019A00014000C20ADF8120002A92B4801F037F901
:1019B000012240F22551284801F0AEF9002240F200
:1019C0002771254801F0A8F94021234801F069FA60
:1019D00027208DF8000000208DF801008DF802000E
:1019E00001208DF80300684601F0F1FA01211A4840
:1019F00001F086F90120A4E710B540F22551144802
:101A000001F058FA18B1124801F0EBF9C4B210BD58
:101A100010B540F22551104801F04CFA30B10E4893
:101A200001F0DFF9C4B2204603F048FB10BD10B549
:101A300004462146084801F0D0F900BF402106487D
:101A400001F022FA0028F9D010BD00000008014082
:101A500000380140000C01400048004037B5054601
:101A6000082004F0ADF80446062004F0A9F8206030
:101A7000BDF8040021680880BDF806002168488090
:101A8000BDF80800216888800020606068684460B4
:101A90006C60A868401CA86000203EBD2DE9F041A4
:101AA00004460E46206845680627384604F088F844
:101AB000064628680088308028684088708028683A
:101AC0008088B080686821684860A068401EA06077
:101AD0006068A84203D1206860600020A060286888
:101AE00004F09DF8284604F09AF80020BDE8F08143
:101AF00010B50121880701F03AF850B1012188079B
:101B000001F046F851480068401C5049086003F055
:101B1000FBFF10BD4E48006870471FB50121084605
:101B200000F017FA4FF0804000F06AFA2320ADF879
:101B300008006320ADF804000020ADF80A00ADF8FD
:101B4000060001A94FF0804000F0BCFA012188078F
:101B500001F00AF801221146900700F05AFD1C20FE
:101B60008DF8000000208DF8010003208DF80200A0
:101B700001208DF80300684601F029FA002033495E
:101B8000086000214FF0804000F028FD1FBD10B517
:101B90000121304800F0EBFFD8B101212D4800F0C1
:101BA000F7FF2B480068401C294908600846006878
:101BB000FA21B0FBF1F201FB120050B9264800688F
:101BC000401C25490860084600680C2801D1002007
:101BD000086010BD2048006870477FB505460C4678
:101BE0000121022000F0B5F91A4800F009FAADF819
:101BF0000850ADF804400020ADF80A00ADF806002A
:101C000001A9144800F05EFA0121124800F0ACFF6F
:101C1000012211460F4800F0FCFC1D208DF8000049
:101C200000208DF8010004208DF8020001208DF8BD
:101C30000300684601F0CBF9002005490860064919
:101C400008600121034800F0C9FC7FBD7C00002032
:101C5000800000200004004084000020DF4800686D
:101C600040F00100DD49086008464068DC49084052
:101C7000DA49486008460068DA490840D7490860F0
:101C80000846006820F4802008600846406820F478
:101C9000FE0048604FF41F0088607047CF49096814
:101CA00021F48031CD4A11601146096821F4802168
:101CB0001160B0F5803F03D0B0F5802F0ED106E063
:101CC000C649096841F48031C44A116007E0C3493C
:101CD000096841F4A021C14A116000E000BF00BFC3
:101CE000704710B501460022002300204A11012A46
:101CF00002D1BA4C236806E0022A02D1B74C236A0B
:101D000001E0B64C636A01F01F02012494401C40BC
:101D10000CB1012000E0002010BD38B5002000907B
:101D20000024002500BF3120FFF7DBFF05460098A7
:101D3000401C00900098B0F5A06F01D0002DF2D0AB
:101D40003120FFF7CEFF08B1012400E00024204637
:101D500038BD01460020A14A106820F0F80040EA92
:101D6000C10010607047A04908607047024600201B
:101D70009A4B586820F47C1042EA01031843974BB1
:101D80005860704798490866704701460020934A9A
:101D9000506820F003000843506070478F48406847
:101DA00000F00C007047014600208C4A506820F07B
:101DB000F00008435060704701460020874A506891
:101DC00020F4E06008435060704701460020834AD9
:101DD000506820F4605040EAC1005060704729B15B
:101DE0007E4A527A02437D4B5A7204E07B4A527A11
:101DF00082437A4B5A7270477B49D83108607047EA
:101E000001460020754A506820F440400843506065
:101E100070470021714A20321170704A82F82010F8
:101E2000012802D004280AD104E001216B4A2032A3
:101E3000117005E00521694A2032117000E000BFF1
:101E400000BF70476949086070476449096A0143E7
:101E5000624A11627047654944390860704730B57D
:101E600000210022002400235C4D6D6805F00C0168
:101E700021B1042905D0082923D105E05C4D056076
:101E800022E05B4D05601FE0544D6D6805F4701253
:101E9000524D6D6805F48034022505EB92421CB961
:101EA000544D554305600BE04C4D6D6805F400350D
:101EB0001DB1504D5543056002E04D4D5543056041
:101EC00002E04B4D056000BF00BF444D6D6805F05A
:101ED000F0010909484D6B5C0568DD4045603F4DE8
:101EE0006D6805F4E061090A434D6B5C4568DD40AF
:101EF00085603A4D6D6805F46051C90A3E4D6B5CD2
:101F00004568DD40C560354D6D6805F44041890B7D
:101F10003A4D6B5CC568B5FBF3F5056130BD29B181
:101F20002E4A526902432D4B5A6104E02B4A5269F2
:101F300082432A4B5A61704729B1284A9269024369
:101F4000264B9A6104E0254A92698243234B9A61A9
:101F5000704729B1214AD2690243204BDA6104E07B
:101F60001E4AD26982431D4BDA61704729B11B4A70
:101F7000D2680243194BDA6004E0184AD2688243FF
:101F8000164BDA60704729B1144A12690243134BA9
:101F90001A6104E0114A12698243104B1A617047BA
:101FA00012494039086070470F49C86470470B49AF
:101FB000C87170470948406A40F08070074948621C
:101FC000704701460020054A92680A400AB1012084
:101FD00000E00020704701498872704700100240FD
:101FE0000000FFF8FFFFF6FE00004242800442427C
:101FF00000127A0000093D008C0000209C000020A7
:1020000010B50446FE48844208D10121C014FFF7F0
:10201000ADFF0021E014FFF7A9FF52E0B4F1804FBB
:1020200008D101210846FFF7AEFF00210120FFF78C
:10203000AAFF46E0F348844208D101210220FFF7BD
:10204000A2FF00210220FFF79EFF3AE0EE48844203
:1020500008D101210420FFF796FF00210420FFF79B
:1020600092FF2EE0E948844208D101210820FFF7C1
:102070008AFF00210820FFF786FF22E0E44884421F
:1020800008D101211020FFF77EFF00211020FFF76B
:102090007AFF16E0DF48844208D101212020FFF7B3
:1020A00072FF00212020FFF76EFF0AE0DA48844229
:1020B00007D101214014FFF759FF00216014FFF7F9
:1020C00055FF10BD028802F08F020280CA884B883B
:1020D0001A4303881A4302808A8882850A88028507
:1020E000C74A904202D0CC4A904201D10A7A028675
:1020F00001228282704770B5002400220023058CE3
:102100004FF6FE7635400584028C8388048B4FF6AB
:102110008C752C400D882C43751E2A400D892A434E
:102120004D882A43B64DA84202D0BB4DA84213D1D8
:102130004FF6F7752A404D892A434FF6FB752A4022
:102140008D882A4347F6FF652B4047F6FF552B4005
:102150008D892B43CD892B4383800483CD8885864D
:10216000028470BD70B5002400220023058C4FF658
:10217000EF7635400584028C8388048B48F6FF4552
:102180002C400D884FF6FF7606EA05252C434FF6C6
:10219000DF752A400D8906EA05152A434D8806EAAF
:1021A00005152A43964DA84202D09B4DA8421DD149
:1021B0004FF67F752A404D894FF6FF7606EA0515E2
:1021C0002A434FF6BF752A408D8806EA05152A4333
:1021D00047F6FF352B4047F2FF752B408D8906EA05
:1021E00085052B43CD8906EA85052B43838004832F
:1021F000CD880587028470BD70B5002400220023BD
:10220000058C4FF6FF6635400584028C8388848BED
:102210004FF68C752C400D882C434FF6FF552A4005
:102220000D894FF6FF7606EA05252A434D8806EA12
:1022300005252A43724DA84202D0774DA8421DD1F0
:102240004FF2FF752A404D894FF6FF7606EA0525C5
:102250002A434FF6FF352A408D8806EA05252A4392
:1022600046F6FF752B4045F6FF752B408D8906EA33
:1022700005152B43CD8906EA05152B4383808483FE
:10228000CD888587028470BD70B5002400220023AC
:10229000058C4EF6FF7635400584028C8388848B4E
:1022A00048F6FF452C400D884FF6FF7606EA0525D7
:1022B0002C434DF6FF752A400D8906EA05352A4361
:1022C0004D8806EA05352A434D4DA84202D0524DAD
:1022D000A84207D1C3F30D038D894FF6FF7606EAB6
:1022E00085152B4383808483CD88A0F840500284D9
:1022F00070BD828B4FF2FF331A408283828B4FF680
:10230000FF7303EA01231A4382837047F0B50C463A
:102310001546002100220026078C4EF6FF7C07EAB6
:102320000C070784818B028C4FF6FF7707EA04368F
:1023300040F6FF4739404FF6FF7707EA0527394354
:102340004FF6FF7707EA033739434DF6FF773A40F8
:1023500046F480573A4381830284F0BD828B4FF666
:10236000F3731A408283828B0A4382837047F0B5ED
:102370000C461546002100220026078C4FF6FF6C04
:1023800007EA0C070784818B028C4FF6FF7707EA78
:1023900004264FF60C7739404FF6FF7707EA03170C
:1023A0002F4339434FF6FF573A4046F480773A437C
:1023B00081830284F0BD028B4FF2FF331A40028307
:1023C000028B4FF6FF7303EA01231A43028370471F
:1023D000F0B50C461546002100220026078C4FF66A
:1023E000EF7C07EA0C070784018B028C4FF6FF771E
:1023F00007EA041640F6FF4739404FF6FF770DE035
:10240000002C01400004004000080040000C004087
:1024100000100040001400400034014007EA033778
:1024200039434FF6FF7707EA052739434FF6DF7741
:102430003A4046F010073A4301830284F0BD028B14
:102440004FF6F3731A400283028B0A4302837047EC
:10245000F0B50C46154600210022068C4FF6FE779B
:102460003E400684018B028C4FF60C7631407E1C78
:1024700006EA03162E4331437E1E324044F0010625
:10248000324301830284F0BD70B505460C462088B6
:1024900050B92389A28861882846FFF7D9FFE188CF
:1024A0002846FFF7CCFF25E0208804280AD123899D
:1024B000A28861882846FFF78BFFE1882846FFF74E
:1024C0007AFF17E0208808280AD12389A28861882A
:1024D0002846FFF74CFFE1882846FFF73FFF09E059
:1024E0002389A28861882846FFF710FFE1882846E3
:1024F000FFF7FFFE70BD2DE9F04105460C460026B2
:102500000127608808B9022600E00026A08801287B
:1025100001D1022700E001272088A0B92389A288E1
:1025200061882846FFF794FFE1882846FFF787FF78
:1025300023893A4631462846FFF74AFFE188284674
:10254000FFF739FF13E02389A28861882846FFF747
:102550003FFFE1882846FFF72EFF23893A463146A0
:102560002846FFF775FFE1882846FFF768FFBDE8BA
:10257000F0810A884B881A438B881A43CB881A4308
:102580000B891A434B891A438B891A43A0F84420BC
:1025900070474FF6FF71818000210180C18041802A
:1025A000017270470021018041808180C1800181DA
:1025B00041818181C18170470021018041800121D9
:1025C00081800021C180018170470021018041800C
:1025D0008180C180018141818181704721B1028860
:1025E00042F00102028004E0028840F2FE331A4009
:1025F0000280704731B1B0F8442042F40042A0F8A4
:10260000442005E0B0F84420C2F30E02A0F84420B4
:1026100070471AB183890B43838102E083898B431E
:10262000838170478182704741EA0203A0F84830F5
:1026300070471AB183890B43838102E083898B43FE
:102640008381704701894FF6F8721140018170470C
:102650000A46002101894FF68F7319401143018109
:10266000704730B504460D4629462046FFF7F0FF77
:10267000208940F00700208130BD2DE9F04104465B
:102680000D4616461F46602D06D13B4601223146B7
:102690002046FFF79DFE05E03B46012231462046DD
:1026A000FFF7D6FE29462046FFF7D2FF208940F0EB
:1026B00007002081BDE8F08130B50C46002101897A
:1026C000C9B24FF6FF7505EA032515432543294393
:1026D000018130BD2DE9F04105460E46174698466A
:1026E000002443463A4631462846FFF7E5FF2C8949
:1026F0004FF6F870044044F007044FF68F70044022
:1027000044F070042C81BDE8F081F0B504460D461C
:1027100016461F463B46324629462046FFF7CCFF69
:10272000208940F480402081F0BD0185828270477D
:102730000A460021018840F28F331940114301807D
:102740007047F0B50C4615461E46002100220023B6
:102750000189028B038C4FF6F877394021434FF6FD
:10276000FC473A4040F201173A434FF6DD773B40D1
:102770004FF6FF7707EA06172F433B430181028399
:102780000384F0BD0A460021018B4FF68F73194078
:102790001143018370470A460021018B48F6FF73FD
:1027A00019404FF6FF7303EA022319430183704770
:1027B0000A460021818B4FF68F73194011438183A4
:1027C00070470A460021818B48F6FF7319404FF687
:1027D000FF7303EA022319438183704721B1028802
:1027E00042F08002028004E0028840F27F331A4007
:1027F0000280704721B1828842F00402828004E0A6
:1028000082884FF6FB731A408280704721B182881C
:1028100042F00802828004E082884FF6F7731A4083
:102820008280704721B1828842F00102828004E0F8
:1028300082884FF6FE731A40828070470A46002154
:10284000018B4FF6F77319401143018370470A4615
:102850000021018B4FF2FF7319404FF6FF7303EA1B
:1028600002231943018370470A460021818B4FF6EA
:10287000F77319401143818370470A460021818B09
:102880004FF2FF7319404FF6FF7303EA0223194317
:10289000818370470A460021018B4FF6FB73194074
:1028A0001143018370470A460021018B4FF6FF3325
:1028B00019404FF6FF7303EA02231943018370475F
:1028C0000A460021818B4FF6FB7319401143818327
:1028D00070470A460021818B4FF6FF3319404FF6AF
:1028E000FF7303EA02231943818370470A460021DC
:1028F000018B4FF67F7319401143018370470A46DD
:102900000021018BC1F30E014FF6FF7303EA02238E
:102910001943018370470A460021818B4FF67F736C
:1029200019401143818370470A460021818BC1F30E
:102930000E014FF6FF7303EA0223194381837047A8
:102940000A460021018C4FF6FD73194011430184A2
:1029500070470A460021018C4FF6F7731940114366
:10296000018470470A460021018C4FF6DF7319403D
:102970004FF6FF7303EA02131943018470470A46B6
:102980000021018C4FF67F7319404FF6FF7303EA65
:1029900002131943018470470A460021018C4FF647
:1029A000FF5319404FF6FF7303EA022319430184D2
:1029B00070470A460021018C4FF2FF7319404FF611
:1029C000FF7303EA02231943018470470A4600217A
:1029D000018C4DF6FF7319404FF6FF7303EA023383
:1029E00019430184704730B5002301248C40A3B201
:1029F000048C9C430484048C02FA01F5ADB22C4390
:102A0000048430BD30B5002304248C40A3B2048C70
:102A10009C430484048C02FA01F5ADB22C43048477
:102A200030BD70B50346002000241846183001253B
:102A30008D40ACB21D8CA5431D8409B108290AD173
:102A400000EB610005684FF68F763540056005683C
:102A5000154305600FE00D1FC5F34E0528440568BA
:102A600048F6FF763540056005684FF6FF7606EAC2
:102A700002263543056070BD21B1028842F0020292
:102A8000028004E0028840F2FD331A400280704761
:102A900021B1028842F00402028004E0028840F280
:102AA000FB331A400280704721B1828842F08002D5
:102AB000828004E082884FF67F731A4082807047DC
:102AC000028840F2F7331A40028002880A430280EB
:102AD000704782884FF68F731A40828082880A433B
:102AE0008280704702894FF6F8731A40028102898A
:102AF0000A430281704702894FF67F731A400281B0
:102B000002890A430281704781847047818570473A
:102B1000818670470187704781877047A0F8401011
:102B200070470288D2B2028002880A43028070474E
:102B30000146888E70470146088F70470146888F8E
:102B400070470146B1F8400070470146888C7047D5
:102B50000146088D704702460020138A0B400BB1D6
:102B6000012000E000207047CA430282704730B560
:102B70000246002000230024158A05EA01039589F6
:102B800005EA010413B10CB1012000E0002030BDC2
:102B9000CA4302827047000010B50446E2488442EE
:102BA00009D101218803FFF7E1F900214FF48040AA
:102BB000FFF7DCF932E0DD48844209D10121480405
:102BC000FFF7E1F900214FF40030FFF7DCF925E0D1
:102BD000D748844209D101218804FFF7D4F90021A4
:102BE0004FF48020FFF7CFF918E0D248844209D192
:102BF0000121C804FFF7C7F900214FF40020FFF7B7
:102C0000C2F90BE0CC48844208D101210805FFF746
:102C1000BAF900214FF48010FFF7B5F910BD2DE986
:102C2000F04786B005460E460024A24600BF00BF0E
:102C30000027B08900B100BF2F462C8A4CF6FF70E8
:102C40000440F08804432C82AC894EF6F310044013
:102C5000B08831890843718908430443AC81AC8A48
:102C60004FF6FF400440B0890443AC8201A8FFF74F
:102C7000F6F8AD48874202D1DDF810A001E0DDF89A
:102C80000CA00AEBCA0000EB0A1031688900B0FB07
:102C9000F1F86420B8FBF0F004012009642101FB85
:102CA0001089322000EB0910B0FBF1F000F00F00AA
:102CB00004432C8106B0BDE8F0874FF41651016043
:102CC00000218180C18001810C214181002181810D
:102CD000704710B502460020108A4FF2FF031840DB
:102CE0000B884C8823438C882343CC882343184388
:102CF000108210BD0021018041808180C180704719
:102D000021B1828942F40052828104E082894DF629
:102D1000FF731A4082817047F0B5034600240026F5
:102D20000025002040F66A17B94200D100BF1846BE
:102D3000C1F3421401F01F06012707FA06F5012C22
:102D400001D10C3004E0022C01D1103000E014302D
:102D50001AB107682F43076002E00768AF430760B6
:102D6000F0BD1AB1838A0B43838202E0838A8B43CE
:102D700083827047028A4FF6F0731A400282028AF9
:102D80000A430282704782894FF2FF731A408281A0
:102D900082890A438281704721B1828942F002020E
:102DA000828104E082894FF6FD731A408281704768
:102DB000028A4FF6DF731A400282028A0A430282B5
:102DC000704721B1028A42F48042028204E0028A02
:102DD0004BF6FF731A4002827047C1F308028280EB
:102DE000704701468888C0F308007047818941F028
:102DF000010181817047028BD2B20283028B42EAC9
:102E0000012202837047028B02F47F420283028B0D
:102E10000A430283704721B1828A42F020028282F3
:102E200004E0828A4FF6DF731A408282704721B134
:102E3000828A42F01002828204E0828A4FF6EF73A7
:102E40001A408282704721B1828A42F0080282824F
:102E500004E0828A4FF6F7731A4082827047828AB2
:102E60004FF6FB731A408282828A0A43828270473D
:102E700021B1828A42F00202828204E0828A4FF605
:102E8000FD731A408282704702460020B1F5007F30
:102E900000D100BF13880B400BB1012000E00020DF
:102EA000704701F40072B2F5007F00D100BFCA4341
:102EB0000280704770B502460024002300250020E0
:102EC00040F66A16B14200D100BFC1F3421501F0CD
:102ED0001F03012606FA03F3012D02D19689334020
:102EE00006E0022D02D1168A334001E0968A334073
:102EF0000C12012606FA04F41688344013B10CB102
:102F0000012000E0002070BD10B50022002340F633
:102F10006A14A14200D100BF0A1201249440A3B256
:102F2000DC43048010BD0000003801400044004034
:102F300000480040004C00400050004010B5012106
:102F4000C802FFF720F800214FF40060FFF71BF8DC
:102F500010BD0021194A126822F4C0710143174ABA
:102F60001160704708B5002100911449096821F0EB
:102F70007F01009100F07F01009A114300910F4AF8
:102F80000099116008BD01200D490860704700F0EC
:102F90007F010A4A121F1160704740F08001074A02
:102FA000121F116070470548001D0068C0B27047CD
:102FB00000200249091D086070470000042C0040F1
:102FC000A480054231490143314A1160704770B510
:102FD000002100230F22C47804B32D4C246804F48C
:102FE000E064C4F5E064210AC1F10403CA404478F6
:102FF00004FA03F18478144021430901254C067832
:10300000A155047804F01F050124AC4005786D112A
:10301000AD0005F1E025C5F8004109E0047804F0B1
:103020001F050124AC401C4D0678761145F826405A
:1030300070BD1A4A0A400243154B1B1F1A607047A5
:1030400039B1134A121D12680243114B1B1D1A603D
:1030500006E00F4A121D126882430D4B1B1D1A60B9
:103060007047042808D14FF0E021096941F00401BC
:103070004FF0E022116107E04FF0E021096921F0F3
:1030800004014FF0E0221161704700000000FA05D2
:103090000CED00E000E400E080E100E080FFFF1FB5
:1030A00010B50446C448844208D101210420FEF72B
:1030B0005DFF00210420FEF759FF46E0BF4884422F
:1030C00008D101210820FEF751FF00210820FEF75A
:1030D0004DFF3AE0BA48844208D101211020FEF7A2
:1030E00045FF00211020FEF741FF2EE0B548844245
:1030F00008D101212020FEF739FF00212020FEF712
:1031000035FF22E0B048844208D101214020FEF77B
:103110002DFF00214020FEF729FF16E0AB48844236
:1031200008D101218020FEF721FF00218020FEF739
:103130001DFF0AE0A648844207D101218015FEF751
:1031400015FF0021A015FEF711FF10BD10B50121DC
:103150000846FEF70BFF00210120FEF707FF10BD18
:103160002DE9F0410246002500260020002300241E
:10317000002791F803C00CF00F0591F803C00CF084
:10318000100CBCF1000F03D091F802C04CEA050509
:1031900091F800C0BCF1000F31D0146800202BE082
:1031A0004FF0010C0CFA00F3B1F800C00CEA030672
:1031B0009E4220D183004FF00F0C0CFA03F7BC4362
:1031C00005FA03FC4CEA040491F803C0BCF1280F93
:1031D00006D14FF0010C0CFA00FCC2F814C00AE052
:1031E00091F803C0BCF1480F05D14FF0010C0CFA67
:1031F00000FCC2F810C0401C0828D1D31460B1F8FC
:1032000000C0BCF1FF0F34DD546800202EE000F157
:10321000080C4FF0010808FA0CF3B1F800C00CEAF2
:1032200003069E4221D183004FF00F0C0CFA03F7E6
:10323000BC4305FA03FC4CEA040491F803C0BCF15A
:10324000280F05D100F1080C08FA0CF8C2F8148018
:1032500091F803C0BCF1480F07D100F1080C4FF002
:10326000010808FA0CF8C2F81080401C0828CED3D8
:103270005460BDE8F0814FF6FF710180022181703A
:103280000421C17070470246002093680B400BB1C7
:10329000012000E0002070470146886880B2704736
:1032A00002460020D3680B400BB1012000E0002053
:1032B00070470146C86880B270470161704741613C
:1032C00070470AB1016100E041617047C160704719
:1032D0004FF480320A43826181618261826982692E
:1032E0007047024600203B4B18684FF68073184029
:1032F00040EA02100843374B186070473649C861EE
:103300007047F0B50A460023002400210025314E05
:103310007168C0F3034583B200F44016B6F5401F50
:1033200008D121F070612B4E766826F07066294F27
:103330007E6012E000F48016B6F5801F06D10326E9
:1033400006FA05F4A14341F0706106E0460D36012E
:1033500003FA06F6B14341F0706122B1460D360121
:1033600003FA06F631431B4E7160F0BD30B5002202
:103370008B071C0F0F2303FA04F2164B08338C1033
:1033800053F824309343134C08348D1044F82530FF
:1033900023468C1053F824308C07240F00FA04F4D1
:1033A00023430C4C08348D1044F8253030BD0A49B5
:1033B000DC3108607047000000080140000C01404B
:1033C000001001400014014000180140001C0140A1
:1033D0000020014000000140000020420146002082
:1033E000FD4A106800F03800084310607047FA4941
:1033F000096821F00801F84A116011460968014383
:1034000011607047F449096821F01001F24A116017
:1034100011460968014311607047F048EE49486061
:10342000EF4848607047EC48006940F08000EA4986
:10343000086170470420E849C96801F0010109B139
:1034400001200EE0E449C96801F0040109B102203D
:1034500007E0E149C96801F0100109B1032000E06B
:103460000420704708B500200090FF20009002E083
:103470000098401E009000980028F9D108BD70B552
:1034800004460425FFF7D6FF054605E0FFF7EAFFEF
:10349000FFF7D0FF0546641E012D01D1002CF5D1A8
:1034A00004B90525284670BD70B50546042440F6CC
:1034B000FF70FFF7E4FF0446042C19D1C6480069E9
:1034C00040F00200C449086108464561006940F0C7
:1034D0004000086140F6FF70FFF7D1FF0446052C5D
:1034E00006D0BD48006941F6FD710840BA4908613F
:1034F000204670BD10B5042440F6FF70FFF7BFFFF3
:103500000446042C18D1B448006940F00400B249C4
:1035100008610846006940F04000086140F6FF700D
:10352000FFF7ADFF0446052C06D0AB48006941F615
:10353000FB710840A8490861204610BD10B504245D
:1035400040F6FF70FFF79BFF0446042C3BD1A348D5
:10355000A1498860A24888600846006940F02000C0
:1035600008610846006940F04000086140F6FF70BD
:10357000FFF785FF0446042C1CD19748006941F6EB
:10358000DF710840944908610846006940F0100066
:103590000861A520934908800F20FFF770FF0446BB
:1035A000052C10D08C48006941F6EF7108408A491B
:1035B000086108E0052C06D08748006941F6EF71E4
:1035C000084085490861204610BDF8B506460D46FD
:1035D0000424002000900F20FFF751FF0446042C24
:1035E00028D17D48006940F001007B4908613580A1
:1035F0000F20FFF744FF0446042C12D1B01C0090AA
:10360000280C009908800F20FFF739FF0446052C8D
:1036100010D07148006941F6FE7108406E4908619A
:1036200008E0052C06D06C48006941F6FE710840A0
:10363000694908612046F8BD70B505460E46042468
:103640000F20FFF71CFF0446042C13D162480069C9
:1036500040F00100604908612E800F20FFF70FFF46
:103660000446052C06D05C48006941F6FE7108400E
:1036700059490861204670BD70B505460E460424C0
:103680000F20FFF7FCFE0446042C17D15348524983
:103690008860534888600846006940F0100008615F
:1036A0002E800F20FFF7EBFE0446052C06D04A487B
:1036B000006941F6EF71084047490861204670BD36
:1036C0002DE9F04704464FF6FF763746B046B1463F
:1036D0000425E443E6B2C4F30727C4F307484FEADE
:1036E00014690F20FFF7CBFE0546042D40D13B485F
:1036F000394988603A4888600846006940F01000FF
:103700000861FF2E06D03748083006800F20FFF7EB
:10371000B6FE0546042D08D1FF2F06D031480A30E9
:1037200007800F20FFF7ABFE0546042D0AD1B8F144
:10373000FF0F07D02B480C30A0F800800F20FFF7B8
:103740009EFE0546042D0AD1B9F1FF0F07D025488A
:103750000E30A0F800900F20FFF791FE0546052DD2
:1037600006D01D48006941F6EF7108401A4908610A
:103770002846BDE8F08770B50546042440F6FF7082
:10378000FFF77DFE0446042C49D114481249886095
:10379000134888600846006940F020000861084628
:1037A000006940F04000086140F6FF70FFF767FED7
:1037B0000446042C2AD10848006941F6DF7108400C
:1037C000054908610846006940F0100008615DB1D4
:1037D0000020044908800AE00020024023016745D8
:1037E000AB89EFCD00F8FF1FA5204549088040F6C2
:1037F000FF70FFF744FE0446052C10D041480069D5
:1038000041F6EF7108403F49086108E0052C06D0F9
:103810003C48006941F6DF7108403A49086120469A
:1038200070BD2DE9F04105460E4617460424364882
:1038300034498860354888600F20FFF720FE044631
:10384000042C19D12F48006940F010002D4908615F
:1038500047F0F800304328432949891C08800F208D
:10386000FFF70DFE0446052C06D02648006941F6F8
:10387000EF710840234908612046BDE8F0812148E6
:10388000C069800870471F48006A704700201D49C2
:10389000C96901F0020109B1012000E00020704770
:1038A00000201849096801F0200109B1012000E059
:1038B0000020704729B1134A12690243114B1A6163
:1038C00004E0104A126982430E4B1A6170470146A8
:1038D0000020012908D10B4AD26902F001020AB185
:1038E000012008E0002006E0064AD2680A400AB13A
:1038F000012000E0002070470249C86070470000C6
:1039000000F8FF1F0020024023016745AB89EFCD7F
:1039100070470B4880470B4981F308880A480047E5
:10392000FEE7FEE7FEE7FEE7FEE7FEE7FEE7FEE76F
:10393000FEE7FEE705480649064A074B70470000C8
:1039400011390008D808002031010008D8020020F1
:10395000D8080020D8040020D804002030B587B053
:10396000016000224260FE4A8260FE4D3CCDCDE9FE
:103970000545CDE9032303AA3CCA0C303CC01C38E2
:1039800000220092019202929DE81C00C0E90834D6
:10399000C261F54A8262002280F82C2007B030BD57
:1039A0000160704770B504460E46154631463046F4
:1039B00005F0CCF860602946284605F0C7F8A060FD
:1039C00070BD1FB5C0B000203D903E903F903DA817
:1039D00007C83AAC07C400BF469800212B9005F0F9
:1039E00005F80CD1479800212B9004F0FFFF06D179
:1039F000489800212B9004F0F9FF00D1CCE24098C8
:103A0000406929904098C0682890299905F09EF84F
:103A10002B904098806929904098006928902999B6
:103A200005F094F82A902B9905F050FA30904098C0
:103A300080692990409840692890299905F086F876
:103A40002B904098006929904098C0682890299947
:103A500005F07CF82A902B9904F092FE3190409862
:103A600080692990409880692890299905F06EF81E
:103A70002B904098C06828904098C068279028995B
:103A800005F064F84FF07C51299005F01FFA2A9058
:103A90002B9904F075FE329026A81F9029A81B9040
:103AA000479A46994898CDE91C121E90DDE91C12F0
:103AB0001E98CDE91612189018981390014612908E
:103AC00005F044F81590179811900146109005F0F4
:103AD0003DF81390169811900146109005F036F8B5
:103AE0001290139904F04CFE1490159904F048FEBE
:103AF00019904FF07C51199805F028F818901998F2
:103B000017901798169099491698A1EB6000169097
:103B100016981790DDE9171005F018F8139017990B
:103B200005F014F84FF07F51149005F03DF9159011
:103B3000179905F00BF8179017981A901B98159085
:103B4000DDE91C121E98CDE9161218901A981990EA
:103B500016981190199904F0F9FF12901798119086
:103B6000199904F0F3FF139018981190199904F023
:103B7000EDFF149012A90EC915980EC000BF00BF2A
:103B800029A807C820AB07C330A807C823AB07C3C1
:103B90002498199022981890199904F0D7FF1B9037
:103BA0002598199021981890199904F0CFFF1A9030
:103BB0001B9905F08BF91C90259819902098189066
:103BC000199904F0C3FF1B9023981990229818901C
:103BD000199904F0BBFF1A901B9905F077F91D9015
:103BE0002398199021981890199904F0AFFF1B9011
:103BF0002498199020981890199904F0A7FF1A900A
:103C00001B9905F063F91E901CA90EC91F980EC0E0
:103C100000BF26A807C83AAB07C34B9A49994A98F0
:103C2000CDE92A0229912B9826900146259004F08F
:103C30008DFF28902A9824900146239004F086FF57
:103C40002690299824900146239004F07FFF259028
:103C5000269904F095FD2790289904F091FD2F9066
:103C60004098406801462B902F9804F03BFF07D303
:103C70004098806801462B902F9805F033F800D2C9
:103C80008AE14098806929904098C06828902999D5
:103C900004F05CFF2B90409840692990409800699F
:103CA0002890299904F052FF2A902B9904F068FD7E
:103CB0002C90409840692990409840692890299913
:103CC00004F044FF2B904098C06828904098C0684A
:103CD0002790289904F03AFF4FF07C51299005F085
:103CE000F5F82A902B9904F04BFD2D90409800692F
:103CF00029904098C0682890299904F027FF2B90BC
:103D0000409880692990409840692890299904F04A
:103D10001DFF2A902B9905F0D9F82E9020A8199014
:103D20003AA807C81AAB07C323A8129026A80E907A
:103D300029A8079046A807C808AB07C349A807C821
:103D40000BAB07C30C9801900A980090019904F0FE
:103D5000FDFE03900D98019009980090019907E0ED
:103D6000FFFF7F7F0C91000800002041DF59375F83
:103D700004F0ECFE0290039905F0A8F804900D9869
:103D8000019008980090019904F0E0FE03900B98D0
:103D900001900A980090019904F0D8FE02900399CE
:103DA00005F094F805900B980190099800900199FE
:103DB00004F0CCFE03900C980190089800900199B3
:103DC00004F0C4FE0290039905F080F80690DDE946
:103DD0000423DDE90610C0E90023816000BF29A8A3
:103DE00007C80FAB07C30FA807C809AB07C30B98D9
:103DF00006900146059004F0A9FE08900A980490E8
:103E00000146039004F0A2FE069009980490014632
:103E1000039004F09BFE0590069904F0B1FC079016
:103E2000089904F0ADFC0C904FF07C510C9804F014
:103E30008DFE0B900C980A900A980990FE490998FB
:103E4000A1EB6000099009980A90DDE90A1004F0DE
:103E50007DFE06900A9904F079FE4FF07F5107909D
:103E600004F0A2FF08900A9904F070FE0A900A98E4
:103E70000D900E980890DDE910210F98CDE90A21E8
:103E800009900D980C90099804900C9904F05EFE2E
:103E900005900A9804900C9904F058FE06900B982F
:103EA00004900C9904F052FE079005A90EC90898D9
:103EB0000EC000BF00BF26A807C813AB07C3DDE9CB
:103EC0002C122E98CDE91612189017980C90159870
:103ED0000B900C9904F03AFE0E9018980C901498E0
:103EE0000B900C9904F032FE0D900E9904F0EEFF49
:103EF0000F9018980C9013980B900C9904F026FED4
:103F00000E9016980C9015980B900C9904F01EFECC
:103F10000D900E9904F0DAFF109016980C901498FA
:103F20000B900C9904F012FE0E9017980C901398B9
:103F30000B900C9904F00AFE0D900E9904F0C6FF48
:103F400011900FA90EC912980EC000BF23A807C870
:103F50001DAB07C31D9815901A981490159904F07D
:103F60000FFC16901E9815901B981490159904F04C
:103F700007FC17901F9815901C981490159904F041
:103F8000FFFB189016A90EC919980EC000BF20A8F3
:103F900007C83AAB07C300BF00BF409800680021C4
:103FA000329004F023FD02D10021409881624098B4
:103FB000006839904098006832904098806A31904B
:103FC000329904F08FFE1BD24098006801462F9072
:103FD0009A4804F07BFF30904C9904F0B7FD984963
:103FE000319004F041FC32904098806A0146319053
:103FF000329804F0D9FE409988624098806A3990DE
:1040000000BF36A82E9041A807C82FAB07C34FF0BA
:104010007E502C908B492C9804F098FD4FF07C51E9
:104020002D9004F093FD32902F982A90329904F04D
:104030008DFD2B9030982A90329904F087FD2C90BA
:1040400031982A90329904F081FD2D902BA90EC948
:104050002E980EC000BF2DA82690DDE936123898A4
:10406000CDE92712299030A821903AA807C822ABA1
:1040700007C33998259022981D90259904F066FD74
:104080001E9023981D90259904F060FD1F902498A0
:104090001D90259904F05AFD20901EA90EC9219863
:1040A0000EC000BF30A807C82AAB07C32A982290C9
:1040B00027982190229904F063FB23902B9822905B
:1040C00028982190229904F05BFB24902C98229050
:1040D00029982190229904F053FB259023A90EC919
:1040E00026980EC000BF2DA807C836AB07C328A866
:1040F0001F904098D0E90423C168806920AC0EC4A9
:1041000023902CA817904098D0E90413C2688069C6
:10411000CDE9191318921B9030A81290DDE93612E0
:104120003898CDE9131215904C98169013980E906C
:10413000169904F00BFD0F9014980E90169904F048
:1041400005FD109015980E90169904F0FFFC119043
:104150000FA90EC912980EC000BF30A807C81CAB2B
:1041600007C31E9810901B980F90109904F0EEFC56
:1041700012901D980E901A980D900E9904F0E6FC7E
:104180001090199880F000400E901C9801460D90F8
:104190000E9804F0DBFC0F90109904F097FE11903C
:1041A000129904F093FE13901D9810901B980F9095
:1041B000109904F0CBFC12901E980E901A980D9056
:1041C0000E9904F0C3FC10901C980E9018980D9056
:1041D0000E9904F0BBFC0F90109904F0D1FA1190E5
:1041E000129904F073FE14901C9810901B980F9075
:1041F000109904F0ABFC12901E980E9019980D9037
:104200000E9904F0A3FC10901D980E9018980D9034
:104210000E9904F09BFC0F90109904F057FE11903A
:10422000129904F0ADFA15901C9810901A980F90FE
:10423000109904F08BFC07E0DF59375F0000204144
:104240000000404035FA8E3C12901D980E9019984F
:104250000D900E9904F07AFC10901E980E9018980C
:104260000D900E9904F072FC0F90109904F088FAEA
:104270001190129904F02AFE169013A91EC91798DE
:104280001EC000BF2DA80BC82C9A25AC0BC42492CD
:1042900024981A90209819901A9904F071FA1B909A
:1042A00025981A90219819901A9904F069FA1C908F
:1042B00026981A90229819901A9904F061FA1D9084
:1042C00027981A90239819901A9904F059FA1E9079
:1042D0001BA91EC91F981EC000BF28A91EC940984F
:1042E0000C301EC02FA82A904098D0E90423C16842
:1042F00080692BAC0EC42E902E9821900146209000
:1043000004F024FC23902D981F9001461E9004F089
:104310001DFC21902C981D9001461C9004F016FC69
:104320001F902B981D9001461C9004F00FFC1E90CE
:104330001F9904F025FA2090219904F021FA229087
:10434000239904F01DFA24904FF07C51249804F036
:10435000FDFB23902498229022982190FE492198D9
:10436000A1EB6000219021982290DDE9221004F059
:10437000EDFB1E90229904F0E9FB4FF07F511F9056
:1043800004F012FD2090229904F0E0FB2290229884
:1043900029902B982490299904F0D8FB25902C98EB
:1043A0002490299904F0D2FB26902D9824902999E5
:1043B00004F0CCFB27902E982490299904F0C6FB9A
:1043C000289025A91EC92A981EC000BF2FA91EC962
:1043D00040980C301EC0409840692F904098C068AB
:1043E0002E902F9904F0B2FB3190409880692F9065
:1043F000409800692E902F9904F0A8FB30903199D5
:1044000004F064FD4FF08041329004F09FFB339044
:10441000409880692F90409840692E902F9904F021
:1044200095FB3190409800692F904098C0682E907D
:104430002F9904F08BFB3090319904F0A1F94FF0E3
:104440008041329004F082FB3490409880692F9034
:10445000409880692E902F9904F078FB3190409815
:10446000C0682E904098C0682D902E9904F06EFB85
:104470004FF07C512F9004F029FD3090319904F0D9
:104480007FF94FF08041329004F060FB359030A806
:104490002990479A46994898CDE92A122C90DDE94F
:1044A00033203599CDE92D202F912D9825902A98EC
:1044B0002490259904F00AFD26902E9825902B989B
:1044C0002490259904F002FD27902F9825902C9890
:1044D0002490259904F0FAFC289026A90EC9299861
:1044E0000EC000BF30A90EC940981C300EC044B0A9
:1044F00010BD13B5A0B016A811902098D0E90423E0
:10450000C168806912AC0EC41590159807900146D9
:10451000069004F01BFB0990149805900146049046
:1045200004F014FB0790139803900146029004F0E6
:104530000DFB0590129803900146029004F006FBD3
:104540000490059904F01CF90690079904F018F9F5
:104550000890099904F014F90A9003F057FD0146F8
:104560000B904FF07E5004F07FF9109012980B9052
:10457000109904F0EBFA0C9013980B90109904F03A
:10458000E5FA0D9014980B90109904F0DFFA0E9054
:1045900015980B90109904F0D9FA0F900CA91EC928
:1045A00011981EC000BF16A91EC920980C301EC04D
:1045B000209800691590209800691490159904F0CE
:1045C000C5FA17902098C06814902098C06813907E
:1045D000149904F0BBFA4FF07C51159004F076FC6E
:1045E0001690179904F0CCF81990209880691590CE
:1045F0002098C0681490159904F0A8FA1790209894
:1046000040691590209800691490159904F09EFA5D
:104610001690179904F0B4F81890199903F022FA3B
:104620001F90219817904D49179804F08FFA189011
:104630001F9904F0B9FB4FF07C51199004F086FAF1
:104640001E9000201A901B901C901D901E9803F045
:104650005BFB1A901E9803F015FC4149199004F079
:1046600075FA1D9016A80D90DDE91A23DDE91C01ED
:10467000CDE90E23CDE910012098D0E90413C268DA
:104680008069CDE913131292159015980690119830
:104690000590069904F05AFA08901498049010981E
:1046A0000390049904F052FA0690139802900F9820
:1046B0000190029904F04AFA0490129802900E9820
:1046C0000190029904F042FA0390049904F0FEFB71
:1046D0000590069904F0FAFB0790089904F0F6FBA0
:1046E00009901498069011980590069904F02EFAF6
:1046F00008901598049010980390049904F026FAF5
:104700000690129802900F980190029904F01EFAF8
:104710000490139802900E980190029904F016FAF2
:104720000390049904F02CF80590069904F028F8F9
:104730000790089904F0CAFB0A9013980690119804
:104740000590069904F002FA0890129804901098C7
:104750000390049906E00000DF59375F35FA8E3C7C
:10476000000080BF04F0F2F90690159802900F98AF
:104770000190029904F0EAF90490149802900E98BE
:104780000190029904F0E2F90390049904F09EFB71
:104790000590069903F0F4FF0790089903F0F0FFE5
:1047A0000B901298069011980590069904F0CEF996
:1047B00008901398049010980390049904F0C6F997
:1047C0000690149802900F980190029904F0BEF997
:1047D0000490159802900E980190029904F0B6F991
:1047E0000390049903F0CCFF0590069904F06EFB4A
:1047F0000790089903F0C4FF0C90DDE90934DDE966
:104800000B120D98C0E90034C0E9021200BF16A9CE
:104810001EC920980C301EC022B010BD10B5044631
:104820002168A06A04F05EFA01D2012010BD0020C8
:10483000FCE73FB58BB00446159D00200890099019
:104840000A90069508A807C8CDE90412039012A89B
:1048500007C88DE8070020460CA90EC9FFF7B1F87C
:104860002046FFF7DBFF18B1012084F82C000AE096
:1048700094F82C00012806D100212046FFF739FECC
:10488000002084F82C000FB030BD30B589B004464C
:104890000D4605F10C000FC8CDE90723CDE9050150
:1048A000059801907F48069904F050F902907D48E0
:1048B000079904F04BF903907A48089904F046F9F7
:1048C000049001A80FC884E80F0000BF09B030BDF4
:1048D00010B5D1E90834CA6980E81C0010BD2DE983
:1048E000F04F8DB005460C46E168084604F02EF9FD
:1048F0000C90D4E9030104F029F90B906169E06898
:1049000004F024F90A90A169E06804F01FF9099005
:10491000D4E9040104F01AF90890A169206904F0AF
:1049200015F90790D4E9050104F010F906900A99E9
:10493000079803F025FF8146616A04F007F90746EE
:10494000DDE9080104F0C2FA8346216A04F0FEF8AA
:1049500081462169084604F0F9F84FF07C51029035
:104960000C9804F0B3FA0190029903F009FF834612
:10497000E16904F0EBF88246494603F001FF804606
:10498000394603F0FDFE06464FF0804104F0DEF8A4
:1049900003900B99069804F099FA8146616A04F035
:1049A000D5F807466169084604F0D0F84FF07C510D
:1049B00002900C9804F08AFA0190029903F0E0FE4C
:1049C0008346216A04F0C2F88146DDE9080103F05C
:1049D000D7FE8346E16904F0B9F88246494603F000
:1049E000CFFE8046394603F0CBFE06464FF08041AD
:1049F00004F0ACF80490A169084604F0A7F88246D8
:104A00004FF07C510C9804F061FA8346514603F054
:104A1000B7FE8146616A04F099F807460B9906983B
:104A200003F0AEFE8346216A04F090F881460A99AD
:104A3000079804F04BFA8346E16904F087F8824650
:104A4000494603F09DFE8046394603F099FE06462E
:104A50004FF0804104F07AF8059003A807C885E874
:104A600007000DB0BDE8F08F10B587B00E4CD4E94B
:104A700001132268E468CDE90534CDE9032103A9D7
:104A80001EC90C301EC01C380021009101910291FA
:104A90009DE80E00C0E90823C1610449816207B0A6
:104AA00010BD0000000080BF1C91000800002041E4
:104AB0002DE9FE4F044689469246C4F80090C4F89A
:104AC00004A0606803F030FE07466A4A6A4B03F0B0
:104AD000F7FC054603F0DCFAA0600020E0600090DF
:104AE000019002909DE80700C4E905122061BDE82D
:104AF000FE8F0FB42DE9F04393B081460C4610AD04
:104B00001CA807C80AAE07C6D4E9051220690DAE75
:104B100007C60D990A9804F0D9F907900E990B98D9
:104B200004F0D4F908900F990C9804F0CFF909908B
:104B300007A807C885E8070000BF10A807C81CAB76
:104B400007C3206803F0F0FD05460E461C9803F0ED
:104B5000EBFD21F0004107462A46334603F0AEFD47
:104B60001FD3206803F0E0FD05460E461D9803F0B4
:104B7000DBFD21F0004107462A46334603F09EFD47
:104B80000FD3206803F0D0FD05460E461E9803F0B3
:104B9000CBFD21F0004107462A46334603F08EFD47
:104BA0000AD20020E0601CA807C889E8070013B0FB
:104BB000BDE8F0035DF814FB3049E06803F092FFB4
:104BC00009D26168E06803F0DBFDE0601CA807C85B
:104BD00089E80700EBE70DADD4E90512206910AEB6
:104BE00007AB07C31CA807C804AB07C3A7683946AF
:104BF000049803F0ABFF01903946059803F0A6FF37
:104C000002903946069803F0A1FF039001A807C857
:104C100086E8070000BF10A807C80AAB07C30A99B7
:104C2000079803F0ADFD04900B99089803F0A8FDD8
:104C300005900C99099803F0A3FD069004A807C8F5
:104C400085E8070000BF0DA807C8C4E90512206168
:104C50001CA807C889E8070000BFA8E710B50446EC
:104C60000649E06804F03EF801D8012010BD00209C
:104C7000FCE7000043FF0E8CBF15C03F0000A040C2
:104C80000246302A05DB392A03DCA2F13003DAB20E
:104C90000EE0412A05DB462A03DCA2F13703DAB233
:104CA00006E0612A04DB662A02DCA2F15703DAB2CD
:104CB00002F00F000001302905DB392903DCA1F1E6
:104CC0003003D9B20EE0412905DB462903DCA1F10E
:104CD0005703D9B206E0612904DB662902DCA1F1A1
:104CE0005703D9B201F00F03184370470146002261
:104CF00009B900207047002200E0521C11F8013B66
:104D0000002BFAD11046F5E730B503460C4619469C
:104D10000BB9002030BD01E001F8014B101EA2F1DB
:104D20000105AAB2F8D11846F4E7F0B505460E46DB
:104D300013462A46344605B10EB90020F0BDA24202
:104D400002D9E018904208D2002103E0605C505480
:104D5000481C81B29942F9DB07E0194603E0481E7E
:104D6000275C175481B20029F9DC2846E6E70246A1
:104D700002B109B900207047134603E011F8010B96
:104D800002F8010B08780028F8D110701846F2E7F5
:104D9000024601E0521C491C107828B1087818B16D
:104DA00010780B789842F5D010780B78C01A7047BD
:104DB000020E0A70020C4A70020A8A70C8707047AC
:104DC00001460020087800024A78104300028A78E1
:104DD00010430002CA78104370472DE9F04106469F
:104DE000884614460027FB480078012801D1BDE819
:104DF000F0813146384600F0CDFA074600213846AA
:104E000000F0C8FA07462546E01704EB1060C0F32F
:104E10000721384600F0BEFA0746E01704EB1060A1
:104E20000012A4EB0020C1B2384600F0B3FA0746E6
:104E300022464146384600F0B3FA07463A46032177
:104E4000072000F0DEFA0120D1E770B504460D46D8
:104E50000026E0480078012800D170BD2146304688
:104E600000F098FA06460121304600F093FA064613
:104E70000021304600F08EFA06460121304600F04F
:104E800089FA06462DB90021304600F083FA06461D
:104E900004E00121304600F07DFA06463246032147
:104EA000072000F0AEFA0120D7E770B505460C46A2
:104EB0000026C8480078012800D170BD2946304638
:104EC00000F068FA06460221304600F063FA064612
:104ED0000021304600F05EFA06460421304600F01C
:104EE00059FA0646210E304600F054FA0646C4F33D
:104EF0000741304600F04EFA0646C4F3072130461B
:104F000000F048FA0646E1B2304600F043FA0646A1
:104F100032460321072000F074FA0120CDE72DE985
:104F2000F0410646884614460027AA480078012822
:104F300001D1BDE8F0813146384600F02BFA074632
:104F40000321384600F026FA07462546E01704EB11
:104F50001060C0F30721384600F01CFA0746E0173E
:104F600004EB10600012A4EB0020C1B2384600F040
:104F700011FA074622464146384600F011FA074624
:104F80003A460321072000F03CFA0120D1E770B532
:104F900004460E4600258F480078012800D170BDD8
:104FA0002146284600F0F6F905460421284600F07F
:104FB000F1F905460021284600F0ECF905460121EB
:104FC000284600F0E7F905463146284600F0E2F9A8
:104FD00005462A460321072000F013FA0120DEE7E8
:104FE00070B505460C4600267A480078012800D1A5
:104FF00070BD2946304600F0CDF906460521304601
:1050000000F0C8F906460021304600F0C3F9064614
:1050100044F0FF00FF280AD10121304600F0BAF920
:105020000646E1B2304600F0B5F9064632E04FF6EA
:10503000FF7020434FF6FF71884210D102213046A5
:1050400000F0A8F90646C4F30721304600F0A2F9A3
:105050000646E1B2304600F09DF906461AE004210A
:10506000304600F097F90646210E304600F092F9DE
:105070000646C4F30741304600F08CF90646C4F3F7
:105080000721304600F086F90646E1B2304600F0CE
:1050900081F9064632460321072000F0B2F90120CB
:1050A000A6E702461078704702461078704710B5A0
:1050B00003460C461846FFF783FE10BD46490968B3
:1050C000464A1268891A01291CD044490968424A93
:1050D0001268914206D9414909683F4A1268891A03
:1050E00087290FD23D490A683D498A4202D3873950
:1050F0003A4A116039490968087038490968491CF9
:10510000364A1160704730B504460D46002300BF93
:1051100004E0E05CFFF7D2FF581C83B2AB42F8DB3F
:1051200030BD70B50024002509E000F0ADFA2D492E
:105130000A880988491C2B4B19802B498854294817
:105140000088472803D200F095FA0028EDDC2548B6
:105150000088072800DA70BD4EE02348005D55281E
:1051600002D0601C84B247E01F49601C085CAA287A
:1051700002D0601C84B23FE01B49A01C085C10B147
:10518000A01C84B238E01849201D085C4FF6FF715E
:1051900001EA00251449601D085CC01D284485B241
:1051A0004E2D02D9E01C84B226E00E480088001B78
:1051B000A84200DA25E06A1E91B20B4A101900F0ED
:1051C00000F96119491E084A515C88420ED0E01C62
:1051D00084B211E0AC000020A8000020A400002050
:1051E0001A020020A00000204C010020204600F000
:1051F000D8F9601984B200BF27480088001B07282F
:10520000ABDA00BF24480088001B23490880084609
:105210000088002806DD214801191F4802881F4820
:10522000FFF783FD00BF96E71D481E4908601E4931
:10523000086000201D490870FF201D490870704754
:105240001C480078704710B500201A4908700022E9
:105250000321042000F0D5F810BD174800787047EE
:1052600070B50446002500201349087021462846E1
:1052700000F090F8C5B22A460321052000F0C1F8DD
:1052800070BD0B480078704710B5002203210E2036
:1052900000F0B7F810BD0000A00000204C01002075
:1052A00093010020A4000020A8000020AC000020F2
:1052B000AF000020AD000020AE00002010B5044675
:1052C0002046FCF7B4FB10BD10B500216520FFF7A8
:1052D0005EFE00216620FFF7B8FD00216720FFF782
:1052E000B4FD10BD2DE9F04106460F463946304663
:1052F000FFF7DAFE054635B1012D05D0022D04D0A9
:10530000032D04D102E003E002E001E000E000BF71
:1053100000BF29466520FFF73AFE0446012C01D163
:10532000BDE8F0810020FBE72DE9F04104460D4681
:1053300029462046FFF7B5FE074639466620FFF7A7
:1053400084FD0646012E01D1BDE8F0810020FBE777
:105350002DE9F04105460E461746652D02D0662D13
:105360000CD105E039463046FFF7BCFF044606E0A5
:1053700039463046FFF7D8FF044600E000BF00BFC3
:105380002046BDE8F0810320704708B901B100BF95
:1053900070470000C84B1A181170431C98B2704730
:1053A0002DE9F04104460E461546C34807192A4622
:1053B00031463846FFF7B9FC601984B22046BDE893
:1053C000F08130B502460020002305E012F8015BB1
:1053D0002C18E0B25C1CA3B28B42F7DB30BD70B579
:1053E00004460D4604B105B970BD03E02078FFF70F
:1053F00065FF641C281EA5F101018DB2F6D100BF26
:10540000F2E72DE9F04105460E46144600275520E7
:10541000A949891F0870AA20487008468670C5707F
:10542000201208714C71E01D84B2601E81B2A24846
:10543000801FFFF7C6FF0746601E9F49891F0F5454
:1054400021469D48801FFFF7CAFFBDE8F08110B5D7
:1054500000249A48007840B900212046FFF79AFFBF
:10546000C4B201209549087004E001212046FFF7ED
:1054700091FFC4B2224603210020FFF7C2FF10BDF6
:105480003EB5002400200090019002908CA0FFF710
:105490002DFC85B22A468AA12046FFF781FFC4B2BF
:1054A00089A0FFF723FC85B22A4687A12046FFF793
:1054B00077FFC4B289A0FFF719FC85B22A4687A1FD
:1054C0002046FFF76DFFC4B286A0FFF70FFC85B240
:1054D0002A4684A12046FFF763FFC4B283A0FFF7EA
:1054E00005FC85B22A4681A12046FFF759FFC4B2C8
:1054F00080A0FFF7FBFB85B22A467EA12046FFF77E
:105500004FFFC4B27CA0FFF7F1FB85B22A467AA117
:105510002046FFF745FFC4B2224603210120FFF7D2
:1055200070FF3EBD10B50024224603210220FFF784
:1055300068FF10BD70B50546FFF725FF064600243D
:1055400007E06E4810F81400A84200D103E0601C88
:10555000C4B2B442F5DB00BF204670BD2DE9F04770
:105560000446267894F80180A0784FF6FF7101EA8E
:105570000025E078284485B23046FFF7DBFF074678
:105580005E4800EB47004078404502D00020BDE86F
:10559000F0872A46211D3046FFF7DAFE814648464D
:1055A000F5E72DE9F05F04465549E01C11F800804D
:1055B000B8F10F0F5AD2DFE808F0080B0E111C20CB
:1055C00024594A59595959594D00FFF740FF4EE0A7
:1055D000FFF756FF4BE0FFF7A5FF48E04849A01D45
:1055E000085C48490870002203210846FFF709FFBC
:1055F0003DE001204449087039E00120434908702A
:1056000035E03F49601D095C3D4A201D105C41EAC0
:105610000027002518E0A01D2844801C3849085C9C
:105620004FF6FF7101EA0026A01D2844C01C344932
:10563000085C304486B22144891D4819FFF78EFF6B
:105640008346301D284485B2BD42E4DB0FE0FFF7FE
:105650003BFE0CE02A49A01D11F80090E01D11F856
:1056600000A051464846FFF790FE00E000BF00BF93
:10567000BDE8F09F2648006826490968884201D0A5
:10568000012070470020FCE722490968204A12687F
:1056900091420FD01F490A681F498A4202D38739B5
:1056A0001C4A11601B49096808781A490968491C95
:1056B000184A11607047000020020020B00000204E
:1056C0007B2270223A22000036716B766E6D666323
:1056D0006F7737696E736B7400000000222C22769E
:1056E000223A2200312E302E30000000222C226D72
:1056F000223A0000320000007D0000002C910008DA
:105700004C010020AF000020AD000020AE000020C2
:10571000A4000020A80000201A020020A64800785B
:10572000012800D1704700BFFCE710B5FFF78BFDE3
:1057300010BD704708B500209F490870002211462F
:10574000104600F09FF900221146FF2000F09AF960
:105750000020009002E00098401C00900098B0F5F6
:10576000800FF8D30022FF21104600F08BF90020B3
:10577000009002E00098401C00900098B0F5800F67
:10578000F8D3FF220021084600F07CF900200090A9
:1057900002E00098401C00900098B0F5800FF8D30C
:1057A000FF221146104600F06DF901208249087071
:1057B000FFF76AFD0020009002E00098401C009076
:1057C0000098B0F5800FF8D300221146104600F083
:1057D00059F908BD08B501210420FCF7ADFB0320F1
:1057E0008DF8020048208DF803004FF40060ADF8FA
:1057F000000069467148FDF7B3FC4FF48050ADF8E6
:10580000000069466D48FDF7ABFC20216C4800F0B4
:1058100079FA6C486A49C8606B496948C1616B484C
:10582000674988606A496648816108BD10B50024EF
:105830004FF400616148FDF726FD08B944F001040A
:105840004FF480515D48FDF71EFD08B944F0020495
:10585000204610BD70B50446FCF75CF90546A5422C
:1058600001D32D1B01E0E0430544284670BD70B50F
:10587000FFF7DCFF0646002499E0514800EB0410D6
:10588000007820B1102813D040282BD11BE046FA15
:1058900004F000F0010050B11020494901EB04115F
:1058A0000870FCF737F9464901EB0411486019E02C
:1058B00046FA04F000F0010020B92020404901EB35
:1058C000041108700EE046FA04F000F0010040B93F
:1058D00000203B4901EB04114860394901EB0411F8
:1058E000087000BF00BF364800EB04100078102895
:1058F00005D0334800EB04100078402820D130490F
:1059000001EB04114868FFF7A5FF054640F6B830E3
:1059100085424AD3FCF7FEF8294901EB041148609F
:105920004020274901EB04110870254800EB0410C2
:10593000C06858B3224901EB0411C868804734E0BD
:105940001F4800EB0410007820282ED11C4901EBE1
:1059500004114868FFF77EFF05460020184901EB57
:1059600004114860164901EB04110870322D0ED362
:1059700040F6B83085420AD2114800EB0410806826
:1059800020B10F4901EB0411886880470DE040F613
:10599000B830854209D30A4800EB0410C06820B132
:1059A000074901EB0411C8688047601CC4B2022C8F
:1059B000FFF663AF70BD0000B10000200008014099
:1059C000540200202B570008355700081D570008C7
:1059D0003357000808B501210820FCF7ADFA102064
:1059E0008DF803004FF47870ADF8000003208DF8B7
:1059F000020069466D48FDF7B3FB40216B48FDF797
:105A00005CFC20216948FDF758FC4FF48071674821
:105A1000FDF753FC80216548FDF74FFC4FF4007102
:105A20006248FDF74AFC08BD70B505460C46012DDD
:105A300002D0022D18D10BE0012C04D140215B488B
:105A4000FDF73DFC03E040215848FDF736FC17E028
:105A5000012C04D120215548FDF731FC03E0202121
:105A60005248FDF72AFC0BE0012C04D140214F489D
:105A7000FDF725FC03E040214C48FDF71EFC00BF6C
:105A800000BF70BD70B506460C46154600214FF0AC
:105A90008040FCF7A3FD0020454908604549087097
:105AA0004549087045490870002E07DD41480670D9
:105AB0004FF480713D48FDF702FC04E04FF4807123
:105AC0003A48FDF7FAFB002C06DD3B4804708021C4
:105AD0003648FDF7F4FB03E080213448FDF7EDFB89
